:100000000C9462000C948A000C948A000C948A0070
:100010000C948A000C948A000C948A000C948A0038
:100020000C948A000C948A000C948A000C948A0028
:100030000C948A000C948A000C948A000C948A0018
:100040000C9493040C948A000C948A000C948A00FB
:100050000C948A000C948A000C948A000C948A00F8
:100060000C948A000C948A000000000024002700F1
:100070002A0000000000250028002B0000000000DE
:1000800023002600290004040404040404040202DA
:100090000202020203030303030301020408102007
:1000A0004080010204081020010204081020000012
:1000B0000008000201000003040700000000000027
:1000C00000004F0711241FBECFEFD8E0DEBFCDBF29
:1000D00021E0AEE4B1E001C01D92A83EB207E1F715
:1000E00011E0A0E0B1E0E0E1F5E102C005900D9281
:1000F000AE34B107D9F710E0C2E6D0E004C02197D2
:10010000FE010E948E08C136D107C9F70E94DD04A6
:100110000C94860A0C94000096E0899FD00111246B
:10012000A65ABE4F90967C936E935F9791E09196FE
:100130009C939197E091C701F091C8019091C601FD
:10014000992339F0309751F0811108C080917601E0
:100150000994309719F05C968C91FACF0895CF925C
:10016000DF92EF92FF920F931F9396E0899FF00129
:100170001124E65AFE4F11A2278D30A121303105FE
:1001800051F178F02230310509F451C023303105A6
:1001900009F452C01F910F91FF90EF90DF90CF9024
:1001A00008956623B9F361E070E00E948C002FB7D8
:1001B000F8948091560190915701A0915801B09107
:1001C00059012FBF8093B2019093B301A093B40162
:1001D000B093B501DFCF9FB7F894C0905601D0908F
:1001E0005701E0905801F09059019FBF0091B20172
:1001F0001091B3012091B4013091B501C01AD10A18
:10020000E20AF30A0091C4011091C50130E020E038
:100210000C151D052E053F0550F462E070E01F919E
:100220000F91FF90EF90DF90CF900C948C006111B4
:10023000B1CF63E070E0F3CF70E060E0F0CFAF9259
:10024000BF92CF92DF92EF92FF920F931F93CF93C3
:10025000DF936C017B018B01040F151FEB015E0125
:10026000AE18BF08C017D10759F06991D601ED91BA
:10027000FC910190F081E02DC6010995892B79F759
:10028000C501DF91CF911F910F91FF90EF90DF900B
:10029000CF90BF90AF900895833081F028F48130E3
:1002A00099F08230A9F008958730A9F08830C9F01C
:1002B0008430B1F4809180008F7D03C080918000F4
:1002C0008F7780938000089584B58F7784BD0895DB
:1002D00084B58F7DFBCF8091B0008F778093B00085
:1002E00008958091B0008F7DF9CFCF93DF93282FB1
:1002F00030E0F901E255FF4F8491F901E656FF4FD6
:10030000D491F901EA57FF4FC491CC23A1F0811198
:100310000E944C01EC2FF0E0EE0FFF1FE458FF4F5E
:10032000A591B491EC91ED2381E090E009F480E097
:10033000DF91CF91089580E090E0FACF862F0C9462
:1003400075011F93CF93DF93282F30E0F901E25519
:10035000FF4F8491F901E656FF4FD491F901EA5716
:10036000FF4FC491CC23A9F0162F81110E944C019C
:10037000EC2FF0E0EE0FFF1FEE58FF4FA591B49168
:100380008FB7F894EC91111108C0D095DE23DC935F
:100390008FBFDF91CF911F910895DE2BF8CF862F6D
:1003A000642F0C94A101CF93DF9390E0FC01E656FB
:1003B000FF4F24918A579F4FFC0184918823C9F0F5
:1003C00090E0880F991FFC01E859FF4FA591B49167
:1003D000FC01EE58FF4FC591D49161110DC09FB73C
:1003E000F8948C91209582238C93888128232883EC
:1003F0009FBFDF91CF910895623051F49FB7F89479
:100400003C91822F809583238C93E8812E2BEFCF14
:100410008FB7F894EC912E2B2C938FBFEACF862FB9
:10042000642F0C94D3013FB7F894809150019091C0
:100430005101A0915201B091530126B5A89B05C06E
:100440002F3F19F00196A11DB11D3FBFBA2FA92F53
:10045000982F8827BC01CD01620F711D811D911D50
:1004600042E0660F771F881F991F4A95D1F70895BC
:100470009CB59C7F282F2370922B9CBD9DB582FB41
:10048000222720F9892F8E7F822B8DBD0895CF934F
:10049000DF93EC018A890E9438028C89811119C08E
:1004A0008CB580628CBD8CB5837F9B89892B8CBD7C
:1004B00060E089890E94A1018F858EBD00000DB486
:1004C00007FEFDCF8EB561E08989DF91CF910C9455
:1004D000A1018CB58F7DE6CF089590E080E008956E
:1004E000CF92DF92EF92FF92CF93DF93EC018E8158
:1004F0009889911116C060E00E94A10161E08E818F
:100500000E94A10160E08E810E94A1018BE891E030
:100510000197F1F7DF91CF91FF90EF90DF90CF90AF
:100520000895C12CD12C7601C394A701960104C073
:10053000220F331F441F551F8A95D2F7922F909593
:100540008F8589238F87CE010E9447028E81A70164
:10055000960104C0220F331F441F551F8A95D2F7FE
:10056000C9012F85822B8F87CE010E9447028E8181
:1005700004C0CC0CDD1CEE1CFF1C8A95D2F7C09485
:100580008F85C822CF86CE010E9447028BE990E07A
:10059000BFCFCF92DF92EF92FF920F931F93CF9333
:1005A000DF93EC018889062F10E081112BC06E01CA
:1005B00087E0C80ED11CF12CE12C61E0F60181919D
:1005C0006F010E94D301B8010E2C02C0759567958A
:1005D0000A94E2F76170F601319780810E94A101CF
:1005E000FFEFEF1AFF0A84E0E816F10431F7CE01BD
:1005F000DF91CF911F910F91FF90EF90DF90CF90FF
:100600000C94700224E030E0C12CD12C7601C3940C
:10061000D701C601022E04C0880F991FAA1FBB1F55
:100620000A94D2F74F85B90164507109F80102C0EC
:10063000F595E7956A95E2F7E0FF0BC0842B8F876D
:100640002F5F3F4F2830310519F7CE010E94470236
:10065000CECF80958423F3CFCF92DF92EF92FF929B
:100660000F931F93CF93DF93EC01F62E642F8C81B1
:100670000E94A1018D818F3F19F060E00E94A101CD
:100680000F2D10E08D8984FF2BC06E0187E0C80E0E
:10069000D11CF12CE12C61E0F60181916F010E94E7
:1006A000D301B8010E2C02C0759567950A94E2F744
:1006B0006170F601319780810E94A101FFEFEF1A6E
:1006C000FF0A88E0E816F10431F7CE01DF91CF91FF
:1006D0001F910F91FF90EF90DF90CF900C947002DC
:1006E000B80184E0759567958A95E1F7CE010E947F
:1006F000C9026F2DCE01DF91CF911F910F91FF9015
:10070000EF90DF90CF900C94C902CF939091D901D4
:10071000911107C040E0682F89EC91E0CF910C94D3
:100720002C03C82F8091CD0141E050E060E070E0E3
:1007300004C0440F551F661F771F8A95D2F7409556
:100740008091D80148234093D80189EC91E00E9420
:1007500047026C2F70E084E0759567958A95E1F704
:1007600089EC91E00E94C9026C2F89EC91E0CF9155
:100770000C94C902CF93DF93CDB7DEB728970FB69D
:10078000F894DEBF0FBECDBF88E0EEE1F1E0DE0100
:10079000119601900D928A95E1F78091E201811105
:1007A00018C08FEF90E0880F991F21E030E02C0FE8
:1007B0003D1F820F931FFC0180818F5F8068289608
:1007C0000FB6F894DEBF0FBECDBFDF91CF910C9472
:1007D000850381E0E7CFCF93DF93823029F49091B6
:1007E000DE0198609093DE018093E2011092E301B4
:1007F0008BE39DE00197F1F760E08091CD010E94CD
:10080000A10160E08091CF010E94A1018091CE0101
:100810008F3F19F060E00E94A1018091DE0184FD0C
:1008200039C063E089EC91E00E94C902CBE4D6E4D0
:10083000CE010197F1F763E089EC91E00E94C902D3
:100840002197F1F763E089EC91E00E94C90283E50A
:1008500092E00197F1F762E089EC91E00E94C90211
:100860008091DE0180620E94850384E08093DF0135
:100870008CE00E94850381E00E9485038BE39FE169
:100880000197F1F782E08093E00186E0DF91CF915C
:100890000C94850380620E9485038BE496E40197A3
:1008A000F1F78091DE0180620E94850383E592E08A
:1008B0000197F1F78091DE0180620E948503D0CF1D
:1008C0001F93CF93DF93EC01162F888981110AC003
:1008D00041E0CE010E942C0381E090E0DF91CF91B6
:1008E0001F9108952C8181E090E0A0E0B0E004C069
:1008F000880F991FAA1FBB1F2A95D2F72F85822B1D
:100900008F87CE010E944702612F70E084E07595C9
:1009100067958A95E1F7CE010E94C902612FCE0149
:100920000E94C902D9CF1F920F920FB60F921124C5
:100930002F933F938F939F93AF93BF9380915601D3
:1009400090915701A0915801B091590130914F01F8
:1009500023E0230F2D3758F50196A11DB11D2093DB
:100960004F018093560190935701A0935801B09383
:1009700059018091500190915101A0915201B09183
:1009800053010196A11DB11D809350019093510117
:10099000A0935201B0935301BF91AF919F918F915A
:1009A0003F912F910F900FBE0F901F90189526E842
:1009B000230F0296A11DB11DD2CFCF93DF93CDB7E8
:1009C000DEB764970FB6F894DEBF0FBECDBF789444
:1009D00084B5826084BD84B5816084BD85B5826044
:1009E00085BD85B5816085BD80916E0081608093F5
:1009F0006E0010928100809181008260809381005E
:100A0000809181008160809381008091800081606D
:100A1000809380008091B10084608093B1008091C8
:100A2000B00081608093B00080917A0084608093F0
:100A30007A0080917A00826080937A0080917A00B7
:100A4000816080937A0080917A00806880937A0038
:100A50001092C10082E00E94EB0361E08FE00E94EF
:100A6000D30161E08EE00E94D30160E08FE00E943C
:100A7000A10160E08EE00E94A101412C512C3201C5
:100A80004394AE014F5F5F4F5C8B4B8B51E05093B3
:100A9000C6018FB7F894409156015091570160916B
:100AA0005801709159018FBF8091B6019091B701A3
:100AB000A091B801B091B901481B590B6A0B7B0B8F
:100AC0008091C2019091C301B0E0A0E08417950726
:100AD000A607B70708F01CC110E08091C0011817E5
:100AE00060F4E091BC01F091BD01E10FF11D62E005
:100AF00080810E94D3011F5FF0CF312C8091C10112
:100B0000381608F061C0C32CD12CE091BE01F091E1
:100B1000BF01EC0DFD1D61E080810E94D301E091D9
:100B2000BE01F091BF01EC0DFD1D60E080810E94CF
:100B3000A101D301C201032C04C0880F991FAA1F71
:100B4000BB1F0A94D2F74C015C01A094B094212CF5
:100B50008091C001281608F5022D10E0E091BC013B
:100B6000F091BD01E00FF11F80810E9475010C5FC3
:100B70001F4F000F111FF801E65AFE4F892B41F459
:100B80008081918188299929918380832394E0CF62
:100B9000808191818A219B21F7CFE091BE01F09164
:100BA000BF01EC0DFD1D61E080810E94A1018091DB
:100BB000BE019091BF01C80ED91E60E0F601808190
:100BC0000E94D30133949ACF0AE511E06801F6013F
:100BD000878D90A1892B31F4148E4FEF5FEF568FE4
:100BE000458F11A256E0C50ED11C86E991E08C1507
:100BF0009D0569F7B12C8091C001B81608F053C06B
:100C0000A12C8B2C912C880C991CF401EE59FE4FD1
:100C10004F012091C101A21608F043C0F401608188
:100C200071810A2C02C0769567950A94E2F7B29E0C
:100C3000900111242A0D311DEAE5F1E080E0458D97
:100C4000568D2417350709F428C18F5F36968A30F0
:100C5000B1F760FF24C0EAE5F1E090E080E0448D68
:100C6000411118C0E091BA01F091BB01E20FF31FEE
:100C7000408156E0589FF001599FF00D1124E65A2B
:100C8000FE4F448F368F258F10A2178E61E00E9491
:100C9000AF0005C0019636968A30910501F7A394FE
:100CA000B8CFB394A8CF80E0F80191A19111892F1A
:100CB0000A5F1F4F0C151D05B9F79FB7F8944091B7
:100CC00056015091570160915801709159019FBF91
:100CD0004093B6015093B7016093B8017093B90186
:100CE0008823B1F080917B01882391F08091790174
:100CF00090917A01019761F40091760101110BC086
:100D000040E050E0452B09F4C1CE0E940000BECE69
:100D10001092C601F5CF0D3309F062C00E94BA03EC
:100D20008091540190915501823D944009F04AC050
:100D300047E050E06CE371E089EC91E00E941F0114
:100D400061E08EE00E94A10160E08FE00E94A101BD
:100D50008091DF01982F94609093DF018C600E9456
:100D600085030E9413026B017C0188EE882E83E0CC
:100D7000982EA12CB12C0E9413026C197D098E09AA
:100D80009F09683E734081059105A8F321E0821A0E
:100D90009108A108B10848EEC40E43E0D41EE11C3E
:100DA000F11C81149104A104B10429F781E00E948F
:100DB00085038BE39FE10197F1F7109255011092A3
:100DC00054019ECF49E050E064E471E089EC91E089
:100DD0000E941F0160E08EE00E94A10161E0B5CF9A
:100DE00080ED800F8A3008F08BCF20915401309134
:100DF0005501EAE0E29FC001E39F900D11248F307E
:100E0000F7E29F070CF07CCF002E000C110B005373
:100E10001109080F191F10935501009354010E94E6
:100E2000BA034AE0BE016F5F7F4FC8010E942208EB
:100E3000EB89FC8901900020E9F731978F014B89FC
:100E40005C89041B150BB8016F5F7F4F90E080E059
:100E50000E94B9096C010097E9F0FC011082BE0103
:100E60006F5F7F4F0E947F0AA801B60189EC91E075
:100E70000E941F01C114D10419F0C6010E9430095B
:100E80008091DF01982F94609093DF018C600E9425
:100E9000850336CF10E000E0E7CF6170F8CECF9346
:100EA00010925C011092600110925F01109261013A
:100EB00086E391E090935B0180935A01E6E7F1E0CD
:100EC0001082148213821582369681E0E23BF80785
:100ED000B9F784E091E09093BD018093BC0180E07C
:100EE00091E09093BF018093BE0184E08093C001A4
:100EF0008093C10188E091E09093BB018093BA0197
:100F00008AE090E09093C3018093C20184EF91E066
:100F10009093C5018093C4011092C8011092C7013B
:100F20001092B6011092B7011092B8011092B90157
:100F30001092C6011092CC011092CB018AE291E08E
:100F40009093CA018093C90181E08093D9018AE01E
:100F50008093DA0161E00E94D301CFB7F8948091C9
:100F60004E01811127C0E0E9F0E08491E4EAF0E06D
:100F70009491E82FF0E0EE0FFF1FE859FF4FA59185
:100F8000B491EC91E92321F461E08AE00E94A1018F
:100F900061E08AE00E94D3018CB580618CBD8CB584
:100FA00080648CBD61E08DE00E94D30161E08BE044
:100FB0000E94D30180914E018F5F80934E01CFBF7D
:100FC000C4E0C093DB0184E00E9438021092DC018F
:100FD0008CB5837F8CBD91E09093DD018CB58F7DC6
:100FE0008CBD9093CD018FEF8093CE0183E08093F1
:100FF000CF011092D0011092D1011092D201109223
:10100000D301C093D40185E08093D50186E080931D
:10101000D60187E08093D70161E081E00E94D3018F
:101020008091CE018F3F19F061E00E94D30161E011
:101030008091CF010E94D3011092DE0181E0CF9117
:101040000C94EB03BB274A3031F4992322F4BDE220
:10105000909581959F4F0C942E08BB27FB01552737
:10106000AA27880F991FAA1FA41710F0A41B839505
:101070005051B9F7A05DAA3308F0A95DA19300977C
:1010800079F7B111B1931192CB010C944708DC01AF
:10109000FC01672F71917723E1F7329704C07C91AF
:1010A0006D9370836291AE17BF07C8F308952F92B6
:1010B0003F924F925F926F927F928F929F92AF92E8
:1010C000BF92CF92DF92EF92FF920F931F93CF9335
:1010D000DF93CDB7DEB7CA1BDB0B0FB6F894DEBFCC
:1010E0000FBECDBF09942A88398848885F846E84F2
:1010F0007D848C849B84AA84B984C884DF80EE803C
:10110000FD800C811B81AA81B981CE0FD11D0FB644
:10111000F894DEBF0FBECDBFED010895EE0FFF1FA7
:101120000590F491E02D09940F931F93CF93DF93D3
:101130008230910510F482E090E0E091E601F091B8
:10114000E70130E020E0B0E0A0E0309799F421150D
:10115000310509F44AC0281B390B24303105D8F574
:101160008A819B816115710589F1FB0193838283DB
:10117000FE0111C040815181028113814817590736
:10118000E0F04817590799F4109761F012960C9304
:10119000129713961C933296CF01DF91CF911F9136
:1011A0000F9108950093E6011093E701F4CF211504
:1011B000310551F04217530738F0A901DB019A01BC
:1011C000BD01DF01F801C1CFEF01F9CF9093E70135
:1011D0008093E601CDCFFE01E20FF31F819391933F
:1011E0002250310939832883D7CF2091E4013091EF
:1011F000E501232B41F420911A0130911B0130931A
:10120000E5012093E4012091180130911901211585
:10121000310541F42DB73EB740911C0150911D019D
:10122000241B350BE091E401F091E501E217F3078F
:10123000A0F42E1B3F0B2817390778F0AC014E5F46
:101240005F4F2417350748F04E0F5F1F5093E5019D
:101250004093E401819391939FCFF0E0E0E09CCF35
:10126000CF93DF930097E9F0FC013297138212824B
:10127000A091E601B091E701ED0130E020E0109788
:10128000A1F420813181820F931F2091E4013091DC
:10129000E5012817390709F061C0F093E501E093F3
:1012A000E401DF91CF910895EA01CE17DF07E8F559
:1012B0004A815B819E0141155105B1F7E901FB832C
:1012C000EA8349915991C40FD51FEC17FD0761F4CA
:1012D000808191810296840F951FE901998388830B
:1012E000828193819B838A83F0E0E0E012968D9166
:1012F0009C9113970097B9F52D913C911197CD01D1
:101300000296820F931F2091E4013091E501281786
:10131000390739F6309751F51092E7011092E6013E
:10132000B093E501A093E401BCCFD383C283408195
:101330005181840F951FC817D90761F44E5F5F4F25
:1013400088819981480F591F518340838A819B81ED
:10135000938382832115310509F0B0CFF093E70123
:10136000E093E6019ECFFD01DC01C0CF1382128223
:10137000D7CFB0E0A0E0EFEBF9E00C9459088C0176
:10138000009751F4CB010E9494088C01C801CDB79D
:10139000DEB7E0E10C947508FC01E60FF71F9C0135
:1013A00022503109E217F30708F49DC0D901CD910D
:1013B000DC911197C617D70798F0C530D10530F3E7
:1013C000CE0104978617970708F3C61BD70B229701
:1013D000C193D1936D937C93CF010E943009D6CFF6
:1013E0005B01AC1ABD0A4C018C0E9D1EA091E6015A
:1013F000B091E701512C412CF12CE12C109731F5E3
:101400008091E4019091E5018815990509F05CC08F
:101410004616570608F058C080911801909119019E
:10142000009741F48DB79EB740911C0150911D016A
:10143000841B950BE817F90708F055C0F093E501F8
:10144000E093E401F90171836083A0CF8D919C91B9
:10145000119712966C90129713967C901397A8157B
:10146000B90559F56C0142E0C40ED11CCA14DB0465
:1014700020F1AC014A195B09DA011296159780F048
:101480006282738251834083D9016D937C93E1140E
:10149000F10471F0D7011396FC93EE93129776CF77
:1014A00022968C0F9D1FF90191838083F301EFCF6A
:1014B000F093E701E093E60169CF4816590608F476
:1014C0002C017D01D3019ACFCB010E9494087C01AD
:1014D000009749F0AE01B8010E94760AC8010E9447
:1014E0003009870153CF10E000E050CFFB01DC0151
:1014F00002C001900D9241505040D8F70895FB0171
:10150000DC0101900D920020E1F70895F894FFCFDF
:1015100006070809020304053738392F3435362AFF
:101520003132332D63303D2B0000E8018000000094
:101530004000140054000000000060041F016D0210
:101540006C02000000000F02CF019E01436F727217
:0E15500065637400496E636F727265637400A8
:00000001FF
