:100000000C9462000C948A000C948A000C948A0070
:100010000C948A000C948A000C948A000C948A0038
:100020000C948A000C948A000C948A000C948A0028
:100030000C948A000C948A000C948A000C948A0018
:100040000C94CB050C948A000C9499050C947305C0
:100050000C948A000C948A000C948A000C948A00F8
:100060000C948A000C948A000000000025002800EF
:100070002B000000000023002600290000000008DB
:10008000000201000003040700000000000000005F
:1000900000000000240027002A00010204081020AC
:1000A000408001020408102001020408102004040A
:1000B0000404040404040202020202020303030310
:1000C0000303150611241FBECFEFD8E0DEBFCDBF5E
:1000D00011E0A0E0B1E0EEE0F8E102C005900D9281
:1000E000A036B107D9F722E0A0E6B1E001C01D9229
:1000F000A739B207E1F710E0C2E6D0E004C02197CB
:10010000FE010E94320BC136D107C9F70E942A07AF
:100110000C94050C0C94000096E0899FD0011124EA
:10012000AC5DBD4F90967C936E935F9791E09196F6
:100130009C939197E0919102F0919202909190029C
:10014000992339F0309751F0811108C08091400215
:100150000994309719F05C968C91FACF0895CF925C
:10016000DF92EF92FF920F931F9396E0899FF00129
:100170001124EC5DFD4F11A2278D30A121303105F6
:1001800051F178F02230310509F451C023303105A6
:1001900009F452C01F910F91FF90EF90DF90CF9024
:1001A00008956623B9F361E070E00E948C002FB7D8
:1001B000F8948091670190916801A0916901B091D4
:1001C0006A012FBF80937C0290937D02A0937E02F0
:1001D000B0937F02DFCF9FB7F894C0906701D090B3
:1001E0006801E0906901F0906A019FBF00917C0274
:1001F00010917D0220917E0230917F02C01AD10AB7
:10020000E20AF30A00918E0210918F0230E020E0A2
:100210000C151D052E053F0550F462E070E01F919E
:100220000F91FF90EF90DF90CF900C948C006111B4
:10023000B1CF63E070E0F3CF70E060E0F0CFAF9259
:10024000BF92CF92DF92EF92FF920F931F93CF93C3
:10025000DF936C017B018B01040F151FEB015E0125
:10026000AE18BF08C017D10759F06991D601ED91BA
:10027000FC910190F081E02DC6010995892B79F759
:10028000C501DF91CF911F910F91FF90EF90DF900B
:10029000CF90BF90AF900895FC01538D448D252FD2
:1002A00030E0842F90E0821B930B541710F0CF9610
:1002B000089501970895FC01918D828D981761F042
:1002C000A28DAE0FBF2FB11D5D968C91928D9F5F59
:1002D0009F73928F90E008958FEF9FEF0895FC0138
:1002E000918D828D981731F0828DE80FF11D858DEB
:1002F00090E008958FEF9FEF0895FC01918D228D7E
:10030000892F90E0805C9F4F821B91098F73992702
:1003100008958BE691E00E947D0121E0892B09F48C
:1003200020E0822F089580E090E0892B29F00E9440
:10033000890181110C9400000895FC01A48DA80F7F
:10034000B92FB11DA35ABF4F2C91848D90E0019617
:100350008F739927848FA689B7892C93A089B18937
:100360008C91837080648C93938D848D981306C0D8
:100370000288F389E02D80818F7D80830895EF923C
:10038000FF920F931F93CF93DF93EC0181E0888F4F
:100390009B8D8C8D98131AC0E889F989808185FF1F
:1003A00015C09FB7F894EE89FF896083E889F989C1
:1003B00080818370806480839FBF81E090E0DF91C3
:1003C000CF911F910F91FF90EF900895F62E0B8D16
:1003D00010E00F5F1F4F0F731127E02E8C8D8E11D1
:1003E0000CC00FB607FCFACFE889F989808185FF38
:1003F000F5CFCE010E949D01F1CFEB8DEC0FFD2FCB
:10040000F11DE35AFF4FF0829FB7F8940B8FEA89F2
:10041000FB8980818062CFCFCF93DF93EC01888D01
:100420008823B9F0AA89BB89E889F9898C9185FD6F
:1004300003C0808186FD0DC00FB607FCF7CF8C91FD
:1004400085FFF2CF808185FFEDCFCE010E949D0117
:10045000E9CFDF91CF910895833081F028F4813086
:1004600099F08230A9F008958730A9F08830C9F05A
:100470008430B1F4809180008F7D03C08091800032
:100480008F7780938000089584B58F7784BD089519
:1004900084B58F7DFBCF8091B0008F778093B000C3
:1004A00008958091B0008F7DF9CFCF93DF93282FEF
:1004B00030E0F901E458FF4F8491F901E656FF4F0F
:1004C000D491F901E255FF4FC491CC23A1F08111E1
:1004D0000E942C02EC2FF0E0EE0FFF1FEE58FF4FB2
:1004E000A591B491EC91ED2381E090E009F480E0D6
:1004F000DF91CF91089580E090E0FACF862F0C94A1
:1005000055021F93CF93DF93282F30E0F901E45871
:10051000FF4F8491F901E656FF4FD491F901E2555E
:10052000FF4FC491CC23A9F0162F81110E942C02F9
:10053000EC2FF0E0EE0FFF1FE859FF4FA591B491AB
:100540008FB7F894EC91111108C0D095DE23DC939D
:100550008FBFDF91CF911F910895DE2BF8CF862FAB
:10056000642F0C948102CF93DF9390E0FC01E65658
:10057000FF4F249182559F4FFC0184918823C9F03D
:1005800090E0880F991FFC01E057FF4FA591B491AF
:10059000FC01E859FF4FC591D49161110DC09FB77F
:1005A000F8948C91209582238C938881282328832A
:1005B0009FBFDF91CF910895623051F49FB7F894B7
:1005C0003C91822F809583238C93E8812E2BEFCF53
:1005D0008FB7F894EC912E2B2C938FBFEACF862FF8
:1005E000642F0C94B3023FB7F8948091610190910D
:1005F0006201A0916301B091640126B5A89B05C07A
:100600002F3F19F00196A11DB11D3FBFBA2FA92F91
:10061000982F8827BC01CD01620F711D811D911D8E
:1006200042E0660F771F881F991F4A95D1F70895FA
:100630009CB59C7F282F2370922B9CBD9DB582FB7F
:10064000222720F9892F8E7F822B8DBD0895CF938D
:10065000DF93EC018A890E9418038C89811119C0EB
:100660008CB580628CBD8CB5837F9B89892B8CBDBA
:1006700060E089890E9481028F858EBD00000DB4E3
:1006800007FEFDCF8EB561E08989DF91CF910C9493
:1006900081028CB58F7DE6CF089590E080E00895CB
:1006A000CF92DF92EF92FF92CF93DF93EC018E8196
:1006B0009889911116C060E00E94810261E08E81EC
:1006C0000E94810260E08E810E9481028BE891E0AD
:1006D0000197F1F7DF91CF91FF90EF90DF90CF90EE
:1006E0000895C12CD12C7601C394A701960104C0B2
:1006F000220F331F441F551F8A95D2F7922F9095D2
:100700008F8589238F87CE010E9427038E81A701C1
:10071000960104C0220F331F441F551F8A95D2F73C
:10072000C9012F85822B8F87CE010E9427038E81DE
:1007300004C0CC0CDD1CEE1CFF1C8A95D2F7C094C3
:100740008F85C822CF86CE010E9427038BE990E0D7
:10075000BFCFCF92DF92EF92FF920F931F93CF9371
:10076000DF93EC018889062F10E081112BC06E0108
:1007700087E0C80ED11CF12CE12C61E0F6018191DB
:100780006F010E94B302B8010E2C02C075956795E7
:100790000A94E2F76170F601319780810E9481022C
:1007A000FFEFEF1AFF0A84E0E816F10431F7CE01FB
:1007B000DF91CF911F910F91FF90EF90DF90CF903D
:1007C0000C94500324E030E0C12CD12C7601C3946A
:1007D000D701C601022E04C0880F991FAA1FBB1F94
:1007E0000A94D2F74F85B90164507109F80102C02B
:1007F000F595E7956A95E2F7E0FF0BC0842B8F87AC
:100800002F5F3F4F2830310519F7CE010E94270393
:10081000CECF80958423F3CFCF92DF92EF92FF92D9
:100820000F931F93CF93DF93EC01F62E642F8C81EF
:100830000E9481028D818F3F19F060E00E94810249
:100840000F2D10E08D8984FF2BC06E0187E0C80E4C
:10085000D11CF12CE12C61E0F60181916F010E9425
:10086000B302B8010E2C02C0759567950A94E2F7A1
:100870006170F601319780810E948102FFEFEF1ACB
:10088000FF0A88E0E816F10431F7CE01DF91CF913D
:100890001F910F91FF90EF90DF90CF900C94500339
:1008A000B80184E0759567958A95E1F7CE010E94BD
:1008B000A9036F2DCE01DF91CF911F910F91FF9072
:1008C000EF90DF90CF900C94A903CF9390911902F1
:1008D000911107C040E0682F89E092E0CF910C941D
:1008E0000C04C82F80910D0241E050E060E070E000
:1008F00004C0440F551F661F771F8A95D2F7409595
:100900008091180248234093180289E092E00E94E7
:1009100027036C2F70E084E0759567958A95E1F761
:1009200089E092E00E94A9036C2F89E092E0CF91C8
:100930000C94A903CF93DF93CDB7DEB728970FB6FA
:10094000F894DEBF0FBECDBF88E0EEE1F1E0DE013E
:10095000119601900D928A95E1F780912202811102
:1009600018C08FEF90E0880F991F21E030E02C0F26
:100970003D1F820F931FFC0180818F5F8068289646
:100980000FB6F894DEBF0FBECDBFDF91CF910C94B0
:10099000650481E0E7CFCF93DF93823029F4909113
:1009A0001E02986090931E028093220210922302EE
:1009B0008BE39DE00197F1F760E080910D020E94CA
:1009C000810260E080910F020E94810280910E02FC
:1009D0008F3F19F060E00E94810280911E0284FD29
:1009E00039C063E089E092E00E94A903CBE4D6E439
:1009F000CE010197F1F763E089E092E00E94A9033C
:100A00002197F1F763E089E092E00E94A90383E572
:100A100092E00197F1F762E089E092E00E94A90379
:100A200080911E0280620E94650484E080931F0210
:100A30008CE00E94650481E00E9465048BE39FE1E5
:100A40000197F1F782E08093200286E0DF91CF9159
:100A50000C94650480620E9465048BE496E401971F
:100A6000F1F780911E0280620E94650483E592E0A6
:100A70000197F1F780911E0280620E946504D0CF39
:100A80001F93CF93DF93EC01162F888981110AC041
:100A900041E0CE010E940C0481E090E0DF91CF9113
:100AA0001F9108952C8181E090E0A0E0B0E004C0A7
:100AB000880F991FAA1FBB1F2A95D2F72F85822B5B
:100AC0008F87CE010E942703612F70E084E0759527
:100AD00067958A95E1F7CE010E94A903612FCE01A7
:100AE0000E94A903D9CF1F920F920FB60F92112423
:100AF0002F933F934F935F936F937F938F939F9326
:100B0000AF93BF93EF93FF938BE691E00E949D011B
:100B1000FF91EF91BF91AF919F918F917F916F91D5
:100B20005F914F913F912F910F900FBE0F901F90AB
:100B300018951F920F920FB60F9211242F938F9337
:100B40009F93EF93FF93E0917B01F0917C01808173
:100B5000E0918101F091820182FD1BC09081809122
:100B600084018F5F8F7320918501821741F0E0919E
:100B70008401F0E0E559FE4F958F80938401FF9149
:100B8000EF919F918F912F910F900FBE0F901F901B
:100B900018958081F4CF1F920F920FB60F921124F7
:100BA0002F933F938F939F93AF93BF938091670150
:100BB00090916801A0916901B0916A013091600142
:100BC00023E0230F2D3758F50196A11DB11D209369
:100BD00060018093670190936801A0936901B093CD
:100BE0006A018091610190916201A0916301B091CD
:100BF00064010196A11DB11D809361019093620172
:100C0000A0936301B0936401BF91AF919F918F91C5
:100C10003F912F910F900FBE0F901F90189526E8CF
:100C2000230F0296A11DB11DD2CFCF9310926E015A
:100C300010926D0188EE93E0A0E0B0E080936F0128
:100C400090937001A0937101B09372018AE291E0D8
:100C500090936C0180936B0185EC90E09093780108
:100C60008093770184EC90E090937A0180937901EE
:100C700080EC90E090937C0180937B0181EC90E08C
:100C800090937E0180937D0182EC90E090938001AF
:100C900080937F0186EC90E09093820180938101A4
:100CA00010928401109285011092860110928701A2
:100CB0001092260210922A021092290210922B0200
:100CC00088E491E09093250280932402E0E4F2E02E
:100CD0001082148213821582369682E0EC37F80770
:100CE000B9F784E091E0909387028093860280E0D8
:100CF00091E0909389028093880284E080938A0235
:100D000080938B0288E091E0909385028093840227
:100D10008AE090E090938D0280938C0284EF91E0C2
:100D200090938F0280938E02109292021092910201
:100D3000109280021092810210928202109283021D
:100D40001092900210920C0210920B028CE391E030
:100D500090930A028093090281E0809319028AE04D
:100D600080931A0261E00E94B302CFB7F894809199
:100D70000802811127C0E8EBF0E08491E4EAF0E09A
:100D80009491E82FF0E0EE0FFF1FE057FF4FA59181
:100D9000B491EC91E92321F461E08AE00E948102A0
:100DA00061E08AE00E94B3028CB580618CBD8CB595
:100DB00080648CBD61E08DE00E94B30261E08BE055
:100DC0000E94B302809108028F5F80930802CFBF18
:100DD000C4E0C0931B0284E00E94180310921C021E
:100DE0008CB5837F8CBD91E090931D028CB58F7D77
:100DF0008CBD90930D028FEF80930E0283E0809361
:100E00000F02109210021092110210921202109210
:100E10001302C093140285E08093150286E080934C
:100E2000160287E08093170261E081E00E94B3021E
:100E300080910E028F3F19F061E00E94B30261E0E1
:100E400080910F020E94B30210921E0281E0CF91A6
:100E50000C94CB04CF93DF93CDB7DEB764970FB676
:100E6000F894DEBF0FBECDBF789484B5826084BD98
:100E700084B5816084BD85B5826085BD85B581609E
:100E800085BD80916E00816080936E00109281001C
:100E900080918100826080938100809181008160D7
:100EA0008093810080918000816080938000809198
:100EB000B10084608093B1008091B0008160809324
:100EC000B00080917A00846080937A0080917A00EB
:100ED000826080937A0080917A00816080937A00AA
:100EE00080917A00806880937A001092C10082E03D
:100EF0000E94CB0461E08FE00E94B30261E08EE0CB
:100F00000E94B30260E08FE00E94810260E08EE008
:100F10000E948102412C512C32014394AE014F5F5B
:100F20005F4F5C8B4B8B51E0509390028FB7F894DE
:100F300040916701509168016091690170916A0167
:100F40008FBF8091800290918102A0918202B09126
:100F50008302481B590B6A0B7B0B80918C0290918A
:100F60008D02B0E0A0E084179507A607B70708F048
:100F700021C110E080918A02181760F4E091860286
:100F8000F0918702E10FF11D62E080810E94B302BF
:100F90001F5FF0CF312C80918B02381608F061C0B2
:100FA000C32CD12CE0918802F0918902EC0DFD1D3B
:100FB00061E080810E94B302E0918802F091890291
:100FC000EC0DFD1D60E080810E948102D301C20111
:100FD000032C04C0880F991FAA1FBB1F0A94D2F7C5
:100FE0004C015C01A094B094212C80918A022816B7
:100FF00008F5022D10E0E0918602F0918702E00FE3
:10100000F11F80810E9455020C5F1F4F000F111FBE
:10101000F801EC5DFD4F892B41F480819181882995
:101020009929918380832394E0CF808191818A21C3
:101030009B21F7CFE0918802F0918902EC0DFD1D14
:1010400061E080810E9481028091880290918902F2
:10105000C80ED91E60E0F60180810E94B30233946D
:101060009ACF04E212E06801F601878D90A1892BE6
:1010700031F4148E4FEF5FEF568F458F11A256E07B
:10108000C50ED11C80E692E08C159D0569F7B12C48
:1010900080918A02B81608F053C0A12C8B2C912C99
:1010A000880C991CF401E45DFD4F4F0120918B02E7
:1010B000A21608F043C0F401608171810A2C02C0BD
:1010C000769567950A94E2F7B29E900111242A0D55
:1010D000311DE4E2F2E080E0458D568D241735079E
:1010E00009F42DC18F5F36968A30B1F760FF24C0B6
:1010F000E4E2F2E090E080E0448D411118C0E0911C
:101100008402F0918502E20FF31F408156E0589F60
:10111000F001599FF00D1124EC5DFD4F448F368F87
:10112000258F10A2178E61E00E94AF0005C00196C6
:1011300036968A30910501F7A394B8CFB394A8CF1F
:1011400080E0F80191A19111892F0A5F1F4F0C15C2
:101150001D05B9F79FB7F894409167015091680158
:101160006091690170916A019FBF40938002509322
:10117000810260938202709383028823D9F0809168
:1011800045028823B9F0809143029091440201976F
:1011900089F400914002011110C040E050E0452B5D
:1011A00009F4C1CE0E948901882309F4BCCE0E94B3
:1011B0000000B9CE10929002F0CF0D3309F062C05A
:1011C0000E949A048091650190916601823D94404D
:1011D00009F04AC047E050E06EE471E089E092E037
:1011E0000E941F0161E08EE00E94810260E08FE0BA
:1011F0000E94810280911F02982F946090931F0299
:101200008C600E9465040E94F3024B015C0188EE31
:10121000C82E83E0D82EE12CF12C0E94F30268192D
:1012200079098A099B09683E734081059105A8F3F5
:1012300021E0C21AD108E108F10848EE840E43E02B
:10124000941EA11CB11CC114D104E104F10429F7BE
:1012500081E00E9465048BE39FE10197F1F7109212
:1012600066011092650199CF49E050E066E571E0B2
:1012700089E092E00E941F0160E08EE00E948102FE
:1012800061E0B5CF80ED800F8A3008F086CF2091E5
:10129000650130916601EAE0E29FC001E39F900D95
:1012A00011248F30F7E29F070CF077CF002E000C4F
:1012B000110B00531109080F191F109366010093B9
:1012C00065010E949A044AE0BE016F5F7F4FC8012A
:1012D0000E94A109EB89FC8901900020E9F7319770
:1012E0008F014B895C89041B150BB8016F5F7F4F21
:1012F00090E080E00E94380B6C010097E9F0FC015F
:101300001082BE016F5F7F4F0E94FE0BA801B601E5
:1013100089E092E00E941F01C114D10419F0C601B6
:101320000E94620A80911F02982F946090931F027E
:101330008C600E94650431CF10E000E0E7CF61705F
:10134000F3CEBB274A3031F4992322F4BDE29095C5
:1013500081959F4F0C94AD09BB27FB015527AA2708
:10136000880F991FAA1FA41710F0A41B8395505132
:10137000B9F7A05DAA3308F0A95DA193009779F7AA
:10138000B111B1931192CB010C94EB0A0F931F93FF
:10139000CF93DF938230910510F482E090E0E091EA
:1013A0009502F091960230E020E0B0E0A0E03097A6
:1013B00099F42115310509F44AC0281B390B243052
:1013C0003105D8F58A819B816115710589F1FB0191
:1013D00093838283FE0111C0408151810281138178
:1013E00048175907E0F04817590799F4109761F02A
:1013F00012960C93129713961C933296CF01DF919D
:10140000CF911F910F91089500939502109396022A
:10141000F4CF2115310551F04217530738F0A901D7
:10142000DB019A01BD01DF01F801C1CFEF01F9CF66
:101430009093960280939502CDCFFE01E20FF31FA9
:10144000819391932250310939832883D7CF2091FA
:10145000930230919402232B41F420911A01309190
:101460001B01309394022093930220911801309134
:1014700019012115310541F42DB73EB740911C01EA
:1014800050911D01241B350BE0919302F0919402C1
:10149000E217F307A0F42E1B3F0B2817390778F04B
:1014A000AC014E5F5F4F2417350748F04E0F5F1FAA
:1014B0005093940240939302819391939FCFF0E0D5
:1014C000E0E09CCFCF93DF930097E9F0FC013297E7
:1014D00013821282A0919502B0919602ED0130E044
:1014E00020E01097A1F420813181820F931F209179
:1014F0009302309194022817390709F061C0F093E4
:101500009402E0939302DF91CF910895EA01CE1700
:10151000DF07E8F54A815B819E0141155105B1F76E
:10152000E901FB83EA8349915991C40FD51FEC1758
:10153000FD0761F4808191810296840F951FE90176
:1015400099838883828193819B838A83F0E0E0E0A2
:1015500012968D919C9113970097B9F52D913C911E
:101560001197CD010296820F931F20919302309123
:1015700094022817390739F6309751F510929602E0
:1015800010929502B0939402A0939302BCCFD383A0
:10159000C28340815181840F951FC817D90761F418
:1015A0004E5F5F4F88819981480F591F5183408357
:1015B0008A819B81938382832115310509F0B0CF05
:1015C000F0939602E09395029ECFFD01DC01C0CF1F
:1015D00013821282D7CFDC01FC01672F7191772330
:1015E000E1F7329704C07C916D9370836291AE17DE
:1015F000BF07C8F308952F923F924F925F926F9268
:101600007F928F929F92AF92BF92CF92DF92EF9292
:10161000FF920F931F93CF93DF93CDB7DEB7CA1B13
:10162000DB0B0FB6F894DEBF0FBECDBF09942A883E
:10163000398848885F846E847D848C849B84AA84E6
:10164000B984C884DF80EE80FD800C811B81AA8173
:10165000B981CE0FD11D0FB6F894DEBF0FBECDBF3E
:10166000ED010895EE0FFF1F0590F491E02D099410
:10167000B0E0A0E0EEE3FBE00C94FD0A8C010097E3
:1016800051F4CB010E94C6098C01C801CDB7DEB769
:10169000E0E10C94190BFC01E60FF71F9C012250AE
:1016A0003109E217F30708F49DC0D901CD91DC910F
:1016B0001197C617D70798F0C530D10530F3CE0182
:1016C00004978617970708F3C61BD70B2297C19379
:1016D000D1936D937C93CF010E94620AD6CF5B01B8
:1016E000AC1ABD0A4C018C0E9D1EA0919502B091C2
:1016F0009602512C412CF12CE12C109731F5809160
:101700009302909194028815990509F05CC04616E1
:10171000570608F058C08091180190911901009760
:1017200041F48DB79EB740911C0150911D01841B5F
:10173000950BE817F90708F055C0F0939402E09371
:101740009302F90171836083A0CF8D919C911197D1
:1017500012966C90129713967C901397A815B90562
:1017600059F56C0142E0C40ED11CCA14DB0420F10F
:10177000AC014A195B09DA011296159780F0628272
:10178000738251834083D9016D937C93E114F104FA
:1017900071F0D7011396FC93EE93129776CF2296B1
:1017A0008C0F9D1FF90191838083F301EFCFF0939C
:1017B0009602E093950269CF4816590608F42C0169
:1017C0007D01D3019ACFCB010E94C6097C0100970D
:1017D00049F0AE01B8010E94F50BC8010E94620AEF
:1017E000870153CF10E000E050CFFB01DC0102C0C5
:1017F00001900D9241505040D8F70895FB01DC0153
:0E18000001900D920020E1F70895F894FFCFBB
:10180E0006070809020304053738392F3435362AFE
:10181E003132332D63303D2B0000970280000000E3
:10182E0040001400540000000000BF011F014C01D5
:10183E000C027D015B016F010000000040051F01DD
:10184E004D034C0300000000EF02AF027E02436F17
:10185E00727265637400496E636F727265637400B1
:107E0000112484B714BE81FFF0D085E080938100F7
:107E100082E08093C00088E18093C10086E0809377
:107E2000C20080E18093C4008EE0C9D0259A86E02C
:107E300020E33CEF91E0309385002093840096BBD3
:107E4000B09BFECF1D9AA8958150A9F7CC24DD24C4
:107E500088248394B5E0AB2EA1E19A2EF3E0BF2EE7
:107E6000A2D0813461F49FD0082FAFD0023811F036
:107E7000013811F484E001C083E08DD089C08234E0
:107E800011F484E103C0853419F485E0A6D080C0E4
:107E9000853579F488D0E82EFF2485D0082F10E0AE
:107EA000102F00270E291F29000F111F8ED06801E7
:107EB0006FC0863521F484E090D080E0DECF843638
:107EC00009F040C070D06FD0082F6DD080E0C81688
:107ED00080E7D80618F4F601B7BEE895C0E0D1E017
:107EE00062D089930C17E1F7F0E0CF16F0E7DF06D8
:107EF00018F0F601B7BEE89568D007B600FCFDCFD4
:107F0000A601A0E0B1E02C9130E011968C91119780
:107F100090E0982F8827822B932B1296FA010C0160
:107F200087BEE89511244E5F5F4FF1E0A038BF0790
:107F300051F7F601A7BEE89507B600FCFDCF97BE46
:107F4000E89526C08437B1F42ED02DD0F82E2BD052
:107F50003CD0F601EF2C8F010F5F1F4F84911BD097
:107F6000EA94F801C1F70894C11CD11CFA94CF0C13
:107F7000D11C0EC0853739F428D08EE10CD085E9AC
:107F80000AD08FE07ACF813511F488E018D01DD067
:107F900080E101D065CF982F8091C00085FFFCCF94
:107FA0009093C60008958091C00087FFFCCF809118
:107FB000C00084FD01C0A8958091C6000895E0E648
:107FC000F0E098E1908380830895EDDF803219F02E
:107FD00088E0F5DFFFCF84E1DECF1F93182FE3DFCA
:107FE0001150E9F7F2DF1F91089580E0E8DFEE27F6
:047FF000FF270994CA
:027FFE00040479
:0400000300007E007B
:00000001FF
