:100000000C945E000C9486000C9486000C94860080
:100010000C9486000C9486000C9486000C94860048
:100020000C9486000C9486000C9486000C94860038
:100030000C9486000C9486000C9486000C94860028
:100040000C9465020C9486000C94D5020C94AF02BB
:100050000C9486000C9486000C9486000C94860008
:100060000C9486000C9486000000000024002700F9
:100070002A0000000000250028002B0004040404CE
:100080000404040402020202020203030303030342
:10009000010204081020408001020408102001021F
:1000A00004081020000000080002010000030407FB
:1000B00000000000000000000703E30411241FBE3D
:1000C000CFEFD8E0DEBFCDBF21E0A0E4B1E001C0BA
:1000D0001D92A03FB207E1F711E0A0E0B1E0E2E637
:1000E000FEE002C005900D92A034B107D9F710E0F0
:1000F000CDE5D0E004C02197FE010E942305CC3558
:10010000D107C9F70E947D030C9424070C940000CA
:10011000E0EBF0E02491ECE9F0E09491E8E8F0E025
:10012000E491EE23C9F0222339F0233001F1A8F441
:10013000213019F1223029F1F0E0EE0FFF1FEE58C7
:10014000FF4FA591B4912FB7F894EC91811126C07F
:1001500090959E239C932FBF08952730A9F02830B7
:10016000C9F0243049F7209180002F7D03C02091F1
:1001700080002F7720938000DFCF24B52F7724BD18
:10018000DBCF24B52F7DFBCF2091B0002F772093BC
:10019000B000D2CF2091B0002F7DF9CF9E2BDACFC7
:1001A0000895AF92BF92CF92DF92EF92FF920F939A
:1001B0001F93CF93DF936C017B018B01040F151FFD
:1001C000EB015E01AE18BF08C017D10759F0699165
:1001D000D601ED91FC910190F081E02DC6010995C9
:1001E000892B79F7C501DF91CF911F910F91FF9076
:1001F000EF90DF90CF90BF90AF900895FC01538DAA
:10020000448D252F30E0842F90E0821B930B5417F0
:1002100010F0CF96089501970895FC01918D828D7D
:10022000981761F0A28DAE0FBF2FB11D5D968C9116
:10023000928D9F5F9F73928F90E008958FEF9FEF55
:1002400008952FB7F8948091450190914601A091AF
:100250004701B09148012FBF809351019093520103
:10026000A0935301B093540189E491E00E940D01E1
:1002700097FF26C02FB7F8948091450190914601D1
:10028000A0914701B09148012FBF40915101509179
:1002900052016091530170915401841B950BA60B80
:1002A000B70B40914D0150914E0160914F017091FB
:1002B000500184179507A607B707B0F28FEF9FEF9D
:1002C0000895FC01918D828D981731F0828DE80F91
:1002D000F11D858D90E008958FEF9FEF0895FC014B
:1002E000918D228D892F90E0805C9F4F821B910918
:1002F0008F739927089589E491E00E946F0121E0AE
:10030000892B09F420E0822F089580E090E0892B6A
:1003100029F00E947B0181110C9400000895FC01DA
:10032000A48DA80FB92FB11DA35ABF4F2C91848D56
:1003300090E001968F739927848FA689B7892C93B3
:10034000A089B1898C91837080648C93938D848D06
:10035000981306C00288F389E02D80818F7D808309
:100360000895EF92FF920F931F93CF93DF93EC01C9
:1003700081E0888F9B8D8C8D98131AC0E889F9894C
:10038000808185FF15C09FB7F894EE89FF8960834F
:10039000E889F98980818370806480839FBF81E0D0
:1003A00090E0DF91CF911F910F91FF90EF90089512
:1003B000F62E0B8D10E00F5F1F4F0F731127E02EED
:1003C0008C8D8E110CC00FB607FCFACFE889F98925
:1003D000808185FFF5CFCE010E948F01F1CFEB8D9B
:1003E000EC0FFD2FF11DE35AFF4FF0829FB7F894F9
:1003F0000B8FEA89FB8980818062CFCFCF93DF9317
:10040000EC01888D8823B9F0AA89BB89E889F9892C
:100410008C9185FD03C0808186FD0DC00FB607FC61
:10042000F7CF8C9185FFF2CF808185FFEDCFCE0194
:100430000E948F01E9CFDF91CF91089542E050E013
:1004400068E171E089E491E00C94D100CF93DF93EF
:10045000FC0101900020E9F73197AF01481B590BCF
:10046000BC0189E491E00E94D100EC010E941E02CF
:100470008C0F9D1FDF91CF9108950F931F93CF9302
:10048000DF93EC0188819981009759F02A813B81A3
:100490002617370730F081E0DF91CF911F910F9140
:1004A00008958B016F5F7F4F0E944E06009759F0B1
:1004B000998388831B830A832C813D81232B59F7E1
:1004C000FC011082E8CF80E0E7CF1F920F920FB6B9
:1004D0000F9211242F933F938F939F93AF93BF93CA
:1004E0008091450190914601A0914701B09148014A
:1004F0003091440123E0230F2D3758F50196A11DBB
:10050000B11D209344018093450190934601A0932F
:100510004701B09348018091400190914101A09121
:100520004201B09143010196A11DB11D809340018C
:1005300090934101A0934201B0934301BF91AF91C9
:100540009F918F913F912F910F900FBE0F901F9011
:10055000189526E8230F0296A11DB11DD2CF1F9238
:100560000F920FB60F9211242F933F934F935F93E7
:100570006F937F938F939F93AF93BF93EF93FF936B
:1005800089E491E00E948F01FF91EF91BF91AF91BB
:100590009F918F917F916F915F914F913F912F919B
:1005A0000F900FBE0F901F9018951F920F920FB6CD
:1005B0000F9211242F938F939F93EF93FF93E091CA
:1005C0005901F0915A018081E0915F01F091600141
:1005D00082FD1BC09081809162018F5F8F7320919B
:1005E0006301821741F0E0916201F0E0E75BFE4FAA
:1005F000958F80936201FF91EF919F918F912F9141
:100600000F900FBE0F901F9018958081F4CF10921D
:100610004C0110924B0188EE93E0A0E0B0E0809393
:100620004D0190934E01A0934F01B09350018AE089
:1006300091E090934A018093490185EC90E090937A
:1006400056018093550184EC90E09093580180937B
:10065000570180EC90E090935A018093590181EC0E
:1006600090E090935C0180935B0182EC90E090932A
:100670005E0180935D0186EC90E090936001809331
:100680005F01109262011092630110926401109256
:1006900065011092E7011092E6011092E9011092B3
:1006A000E8011092EB011092EA0170E060E086EE42
:1006B00091E00E943D022091E6013091E701811115
:1006C00013C02115310519F0C9010E94C50510920A
:1006D000E7011092E6011092EB011092EA011092EC
:1006E000E9011092E80108951092EB011092EA01DD
:1006F0006AE171E0C9010C941D07CF93DF93CDB778
:10070000DEB728970FB6F894DEBF0FBECDBF789442
:1007100084B5826084BD84B5816084BD85B5826006
:1007200085BD85B5816085BD80916E0081608093B7
:100730006E00109281008091810082608093810020
:100740008091810081608093810080918000816030
:10075000809380008091B10084608093B10080918B
:10076000B00081608093B00080917A0084608093B3
:100770007A0080917A00826080937A0080917A007A
:10078000816080937A0080917A00806880937A00FB
:100790001092C100ECE9F0E02491E8E8F0E08491E7
:1007A000882399F090E0880F991FFC01E859FF4FCA
:1007B000A591B491FC01EE58FF4F859194918FB7AC
:1007C000F894EC91E22BEC938FBFE0915901F091FA
:1007D0005A0182E08083E0915501F0915601108228
:1007E000E0915701F09158018FEC808310926101E4
:1007F000E0915D01F0915E0186E08083E0915B0114
:10080000F0915C01808180618083E0915B01F091D7
:100810005C01808188608083E0915B01F0915C01E4
:10082000808180688083E0915B01F0915C01808130
:100830008F7D808380E0E82E80E0F82E1A82198276
:100840001C821B821E821D8270E060E0CE01019638
:100850000E943D0229813A8181112BC02115310569
:1008600019F0C9010E94C5051A8219821E821D82D3
:100870001C821B820E94210197FD23C08F83188652
:100880000D811E810F5F1F4FB801CE0101960E949E
:100890003D02882379F329813A818D819E81BE01B1
:1008A000695F7F4F820F931F0E941D071E830D8378
:1008B000E1CF1E821D826AE171E0C9010E941D071D
:1008C000D9CF8091E6019091E701009709F457C0D4
:1008D00069817A816115710509F44FC04091E80181
:1008E0005091E9012D813E814217530708F445C01C
:1008F0000E941D078D819E819093EB018093EA01F8
:100900001E821D8289819A81009711F00E94C5057F
:100910004091EA015091EB014115510511F16091AF
:10092000E6017091E70189E491E00E94D1000E9404
:100930001E028091EA019091EB01892B91F00091C8
:10094000E6011091E7016BE171E0C8010E94140714
:10095000892B61F581E00E94880082E291E00E948B
:100960002602E114F10409F469CF0E947B01882377
:1009700009F464CF0E94000061CF0E94C5058981FF
:100980009A819093E7018093E6018B819C819093FB
:10099000E9018093E8018D819E819093EB01809322
:1009A000EA011A8219821C821B82AACF6CE271E0D2
:1009B000C8010E941407892BA1F680E00E948800DC
:1009C00084E391E0CCCF8091E6019091E70100971C
:1009D00011F00C94C50508952F923F924F925F92AB
:1009E0006F927F928F929F92AF92BF92CF92DF923F
:1009F000EF92FF920F931F93CF93DF93CDB7DEB7A4
:100A0000CA1BDB0B0FB6F894DEBF0FBECDBF099437
:100A10002A88398848885F846E847D848C849B848E
:100A2000AA84B984C884DF80EE80FD800C811B819C
:100A3000AA81B981CE0FD11D0FB6F894DEBF0FBECB
:100A4000CDBFED010895EE0FFF1F0590F491E02D4D
:100A500009940F931F93CF93DF938230910510F485
:100A600082E090E0E091EE01F091EF0130E020E0D3
:100A7000B0E0A0E0309799F42115310509F44AC09F
:100A8000281B390B24303105D8F58A819B816115EB
:100A9000710589F1FB0193838283FE0111C04081BE
:100AA00051810281138148175907E0F0481759070F
:100AB00099F4109761F012960C93129713961C9369
:100AC0003296CF01DF91CF911F910F91089500933E
:100AD000EE011093EF01F4CF2115310551F04217CB
:100AE000530738F0A901DB019A01BD01DF01F801CC
:100AF000C1CFEF01F9CF9093EF018093EE01CDCFFD
:100B0000FE01E20FF31F8193919322503109398343
:100B10002883D7CF2091EC013091ED01232B41F4B4
:100B200020910201309103013093ED012093EC01FB
:100B300020910001309101012115310541F42DB7BB
:100B40003EB74091040150910501241B350BE09103
:100B5000EC01F091ED01E217F307A0F42E1B3F0B1F
:100B60002817390778F0AC014E5F5F4F241735071F
:100B700048F04E0F5F1F5093ED014093EC018193BD
:100B800091939FCFF0E0E0E09CCFCF93DF9300976D
:100B9000E9F0FC01329713821282A091EE01B0912C
:100BA000EF01ED0130E020E01097A1F420813181C8
:100BB000820F931F2091EC013091ED012817390726
:100BC00009F061C0F093ED01E093EC01DF91CF916A
:100BD0000895EA01CE17DF07E8F54A815B819E019F
:100BE00041155105B1F7E901FB83EA834991599118
:100BF000C40FD51FEC17FD0761F480819181029627
:100C0000840F951FE90199838883828193819B8357
:100C10008A83F0E0E0E012968D919C911397009703
:100C2000B9F52D913C911197CD010296820F931F3A
:100C30002091EC013091ED012817390739F63097F2
:100C400051F51092EF011092EE01B093ED01A093D7
:100C5000EC01BCCFD383C28340815181840F951FA7
:100C6000C817D90761F44E5F5F4F88819981480F9B
:100C7000591F518340838A819B81938382832115ED
:100C8000310509F0B0CFF093EF01E093EE019ECF74
:100C9000FD01DC01C0CF13821282D7CFB0E0A0E00B
:100CA000E4E5F6E00C94EE048C01009751F4CB01DE
:100CB0000E9429058C01C801CDB7DEB7E0E10C9494
:100CC0000A05FC01E60FF71F9C0122503109E217CB
:100CD000F30708F49DC0D901CD91DC911197C61797
:100CE000D70798F0C530D10530F3CE0104978617A9
:100CF000970708F3C61BD70B2297C193D1936D9327
:100D00007C93CF010E94C505D6CF5B01AC1ABD0A0A
:100D10004C018C0E9D1EA091EE01B091EF01512C63
:100D2000412CF12CE12C109731F58091EC01909140
:100D3000ED018815990509F05CC04616570608F0C4
:100D400058C08091000190910101009741F48DB746
:100D50009EB74091040150910501841B950BE81743
:100D6000F90708F055C0F093ED01E093EC01F901AB
:100D700071836083A0CF8D919C91119712966C9096
:100D8000129713967C901397A815B90559F56C0125
:100D900042E0C40ED11CCA14DB0420F1AC014A1994
:100DA0005B09DA011296159780F062827382518393
:100DB0004083D9016D937C93E114F10471F0D70164
:100DC0001396FC93EE93129776CF22968C0F9D1F6D
:100DD000F90191838083F301EFCFF093EF01E0936A
:100DE000EE0169CF4816590608F42C017D01D301A4
:100DF0009ACFCB010E9429057C01009749F0AE01F2
:100E0000B8010E940B07C8010E94C505870153CF96
:100E100010E000E050CFFB01DC0102C001900D9218
:100E200041505040D8F70895FB01DC018D910190AD
:100E300080190110D9F3990B0895FB01DC01019091
:100E40000D920020E1F7089510E0CDE5D0E004C058
:100E5000FE010E9423052196CE35D107C9F7F894EB
:020E6000FFCFC2
:100E62000000F001800000000000B101D100FE008E
:100E7200FE016F010D0161010D0A006C6564206FB6
:100E82006E004C4544206973206F6E006C656420CF
:100E92006F6666004C4544206973206F66660000E9
:107E0000112484B714BE81FFF0D085E080938100F7
:107E100082E08093C00088E18093C10086E0809377
:107E2000C20080E18093C4008EE0C9D0259A86E02C
:107E300020E33CEF91E0309385002093840096BBD3
:107E4000B09BFECF1D9AA8958150A9F7CC24DD24C4
:107E500088248394B5E0AB2EA1E19A2EF3E0BF2EE7
:107E6000A2D0813461F49FD0082FAFD0023811F036
:107E7000013811F484E001C083E08DD089C08234E0
:107E800011F484E103C0853419F485E0A6D080C0E4
:107E9000853579F488D0E82EFF2485D0082F10E0AE
:107EA000102F00270E291F29000F111F8ED06801E7
:107EB0006FC0863521F484E090D080E0DECF843638
:107EC00009F040C070D06FD0082F6DD080E0C81688
:107ED00080E7D80618F4F601B7BEE895C0E0D1E017
:107EE00062D089930C17E1F7F0E0CF16F0E7DF06D8
:107EF00018F0F601B7BEE89568D007B600FCFDCFD4
:107F0000A601A0E0B1E02C9130E011968C91119780
:107F100090E0982F8827822B932B1296FA010C0160
:107F200087BEE89511244E5F5F4FF1E0A038BF0790
:107F300051F7F601A7BEE89507B600FCFDCF97BE46
:107F4000E89526C08437B1F42ED02DD0F82E2BD052
:107F50003CD0F601EF2C8F010F5F1F4F84911BD097
:107F6000EA94F801C1F70894C11CD11CFA94CF0C13
:107F7000D11C0EC0853739F428D08EE10CD085E9AC
:107F80000AD08FE07ACF813511F488E018D01DD067
:107F900080E101D065CF982F8091C00085FFFCCF94
:107FA0009093C60008958091C00087FFFCCF809118
:107FB000C00084FD01C0A8958091C6000895E0E648
:107FC000F0E098E1908380830895EDDF803219F02E
:107FD00088E0F5DFFFCF84E1DECF1F93182FE3DFCA
:107FE0001150E9F7F2DF1F91089580E0E8DFEE27F6
:047FF000FF270994CA
:027FFE00040479
:0400000300007E007B
:00000001FF
