:100000000C9454000C947C000C947C000C947C00A8
:100010000C947C000C947C000C947C000C947C0070
:100020000C947C000C947C000C947C000C947C0060
:100030000C947C000C947C000C947C000C947C0050
:100040000C948B010C947C000C94FB010C94D50156
:100050000C947C000C947C000C947C000C947C0030
:100060000C947C000C947C0000000000250028000B
:100070002B0000000000240027002A0004040404D0
:100080000404040402020202020203030303030342
:10009000010204081020408001020408102001021F
:1000A000040810202D02620311241FBECFEFD8E0F8
:1000B000DEBFCDBF21E0A6E2B1E001C01D92A63DAA
:1000C000B207E1F711E0A0E0B1E0EEE4FBE002C02E
:1000D00005900D92A632B107D9F710E0C3E5D0E044
:1000E00004C02197FE010E94A203C235D107C9F7BF
:1000F0000E94B4020C949A050C940000AF92BF9237
:10010000CF92DF92EF92FF920F931F93CF93DF93E3
:100110006C017B018B01040F151FEB015E01AE1812
:10012000BF08C017D10759F06991D601ED91FC9134
:100130000190F081E02DC6010995892B79F7C50161
:10014000DF91CF911F910F91FF90EF90DF90CF90B3
:10015000BF90AF900895FC01538D448D252F30E062
:10016000842F90E0821B930B541710F0CF960895C4
:1001700001970895FC01918D828D981761F0A28DF1
:10018000AE0FBF2FB11D5D968C91928D9F5F9F73B7
:10019000928F90E008958FEF9FEF0895FC01918D6D
:1001A000828D981731F0828DE80FF11D858D90E0DA
:1001B00008958FEF9FEF0895FC01918D228D892F77
:1001C00090E0805C9F4F821B91098F73992708955F
:1001D0008FE291E00E94DC0021E0892B09F420E00D
:1001E000822F089580E090E0892B29F00E94E8009A
:1001F00081110C9400000895FC01A48DA80FB92F63
:10020000B11DA35ABF4F2C91848D90E001968F733E
:100210009927848FA689B7892C93A089B1898C915D
:10022000837080648C93938D848D981306C00288AC
:10023000F389E02D80818F7D80830895EF92FF9276
:100240000F931F93CF93DF93EC0181E0888F9B8DF9
:100250008C8D98131AC0E889F989808185FF15C0B3
:100260009FB7F894EE89FF896083E889F9898081D6
:100270008370806480839FBF81E090E0DF91CF91A5
:100280001F910F91FF90EF900895F62E0B8D10E0C7
:100290000F5F1F4F0F731127E02E8C8D8E110CC036
:1002A0000FB607FCFACFE889F989808185FFF5CF81
:1002B000CE010E94FC00F1CFEB8DEC0FFD2FF11D64
:1002C000E35AFF4FF0829FB7F8940B8FEA89FB89BE
:1002D00080818062CFCFCF93DF93EC01888D88231C
:1002E000B9F0AA89BB89E889F9898C9185FD03C099
:1002F000808186FD0DC00FB607FCF7CF8C9185FF7E
:10030000F2CF808185FFEDCFCE010E94FC00E9CFC6
:10031000DF91CF9108951F920F920FB60F92112483
:100320002F933F938F939F93AF93BF9380912B0114
:1003300090912C01A0912D01B0912E0130912A01B4
:1003400023E0230F2D3758F50196A11DB11D2093F1
:100350002A0180932B0190932C01A0932D01B0933F
:100360002E018091260190912701A0912801B09142
:1003700029010196A11DB11D8093260190932701AB
:10038000A0932801B0932901BF91AF919F918F91C4
:100390003F912F910F900FBE0F901F90189526E858
:1003A000230F0296A11DB11DD2CF1F920F920FB63F
:1003B0000F9211242F933F934F935F936F937F93EB
:1003C0008F939F93AF93BF93EF93FF938FE291E04F
:1003D0000E94FC00FF91EF91BF91AF919F918F918F
:1003E0007F916F915F914F913F912F910F900FBE31
:1003F0000F901F9018951F920F920FB60F92112415
:100400002F938F939F93EF93FF93E0913F01F09190
:1004100040018081E0914501F091460182FD1BC0C1
:100420009081809148018F5F8F73209149018217DD
:1004300041F0E0914801F0E0E15DFE4F958F80933F
:100440004801FF91EF919F918F912F910F900FBED7
:100450000F901F9018958081F4CF10923201109266
:10046000310188EE93E0A0E0B0E0809333019093F7
:100470003401A0933501B09336018AE091E0909366
:10048000300180932F0185EC90E090933C018093A4
:100490003B0184EC90E090933E0180933D0180EC21
:1004A00090E09093400180933F0181EC90E0909325
:1004B00042018093410182EC90E09093440180934B
:1004C000430186EC90E090934601809345011092A1
:1004D00048011092490110924A0110924B0110926A
:1004E000CD011092CC011092CF011092CE0110924A
:1004F000D1011092D00161E070E090E080E00E94B4
:10050000CD040097E1F09093CD018093CC0110923F
:10051000CF011092CE012091D0013091D101232B37
:1005200011F4FC0110821092D1011092D00164E20A
:1005300071E08091CC019091CD010C949305809154
:10054000CC019091CD01009711F00E9444041092CB
:10055000CD011092CC011092D1011092D0011092D5
:10056000CF011092CE010895789484B5826084BD45
:1005700084B5816084BD85B5826085BD85B58160A7
:1005800085BD80916E00816080936E001092810025
:1005900080918100826080938100809181008160E0
:1005A00080938100809180008160809380008091A1
:1005B000B10084608093B1008091B000816080932D
:1005C000B00080917A00846080937A0080917A00F4
:1005D000826080937A0080917A00816080937A00B3
:1005E00080917A00806880937A001092C100E3E9DC
:1005F000F0E02491EFE7F0E08491882399F090E017
:10060000880F991FFC01EE58FF4FA591B491FC0192
:10061000E859FF4F859194918FB7F894EC91E22BB4
:10062000EC938FBFE0913F01F091400182E0808325
:10063000E0913B01F0913C011082E0913D01F0918D
:100640003E018FEC808310924701E0914301F091CD
:10065000440186E08083E0914101F0914201808174
:1006600080618083E0914101F09142018081886046
:100670008083E0914101F091420180818068808314
:10068000E0914101F091420180818F7D8083C0E043
:10069000D0E049E050E068E171E08FE291E00E9433
:1006A0007E0042E050E062E271E08FE291E00E9461
:1006B0007E00209771F30E94E800882351F30E9486
:1006C0000000E7CF8091CC019091CD01009711F00F
:1006D0000C94440408952F923F924F925F926F9230
:1006E0007F928F929F92AF92BF92CF92DF92EF92C2
:1006F000FF920F931F93CF93DF93CDB7DEB7CA1B43
:10070000DB0B0FB6F894DEBF0FBECDBF09942A886D
:10071000398848885F846E847D848C849B84AA8415
:10072000B984C884DF80EE80FD800C811B81AA81A2
:10073000B981CE0FD11D0FB6F894DEBF0FBECDBF6D
:10074000ED010895EE0FFF1F0590F491E02D09943F
:100750000F931F93CF93DF938230910510F482E0C3
:1007600090E0E091D401F091D50130E020E0B0E0DC
:10077000A0E0309799F42115310509F44AC0281BEF
:10078000390B24303105D8F58A819B8161157105BB
:1007900089F1FB0193838283FE0111C04081518165
:1007A0000281138148175907E0F04817590799F457
:1007B000109761F012960C93129713961C93329631
:1007C000CF01DF91CF911F910F9108950093D40134
:1007D0001093D501F4CF2115310551F0421753077D
:1007E00038F0A901DB019A01BD01DF01F801C1CF99
:1007F000EF01F9CF9093D5018093D401CDCFFE01C5
:10080000E20FF31F8193919322503109398328839A
:10081000D7CF2091D2013091D301232B41F42091E5
:100820000201309103013093D3012093D201209132
:100830000001309101012115310541F42DB73EB77A
:100840004091040150910501241B350BE091D20128
:10085000F091D301E217F307A0F42E1B3F0B2817EA
:10086000390778F0AC014E5F5F4F2417350748F029
:100870004E0F5F1F5093D3014093D2018193919308
:100880009FCFF0E0E0E09CCFCF93DF930097E9F0BB
:10089000FC01329713821282A091D401B091D5014C
:1008A000ED0130E020E01097A1F420813181820F2A
:1008B000931F2091D2013091D3012817390709F0F5
:1008C00061C0F093D301E093D201DF91CF910895FD
:1008D000EA01CE17DF07E8F54A815B819E014115E9
:1008E0005105B1F7E901FB83EA8349915991C40F9E
:1008F000D51FEC17FD0761F4808191810296840F6A
:10090000951FE90199838883828193819B838A83E0
:10091000F0E0E0E012968D919C9113970097B9F565
:100920002D913C911197CD010296820F931F20913A
:10093000D2013091D3012817390739F6309751F594
:100940001092D5011092D401B093D301A093D2019B
:10095000BCCFD383C28340815181840F951FC817B8
:10096000D90761F44E5F5F4F88819981480F591F05
:10097000518340838A819B81938382832115310532
:1009800009F0B0CFF093D501E093D4019ECFFD01E3
:10099000DC01C0CF13821282D7CFB0E0A0E0E3ED3C
:1009A000F4E00C946D038C01009751F4CB010E948C
:1009B000A8038C01C801CDB7DEB7E0E10C94890330
:1009C000FC01E60FF71F9C0122503109E217F307E3
:1009D00008F49DC0D901CD91DC911197C617D707B6
:1009E00098F0C530D10530F3CE01049786179707EC
:1009F00008F3C61BD70B2297C193D1936D937C93B9
:100A0000CF010E944404D6CF5B01AC1ABD0A4C0151
:100A10008C0E9D1EA091D401B091D501512C412C7A
:100A2000F12CE12C109731F58091D2019091D301F6
:100A30008815990509F05CC04616570608F058C09D
:100A40008091000190910101009741F48DB79EB70C
:100A50004091040150910501841B950BE817F9079B
:100A600008F055C0F093D301E093D201F9017183EE
:100A70006083A0CF8D919C91119712966C901297E4
:100A800013967C901397A815B90559F56C0142E0AF
:100A9000C40ED11CCA14DB0420F1AC014A195B0955
:100AA000DA011296159780F0628273825183408337
:100AB000D9016D937C93E114F10471F0D701139681
:100AC000FC93EE93129776CF22968C0F9D1FF9011F
:100AD00091838083F301EFCFF093D501E093D401AC
:100AE00069CF4816590608F42C017D01D3019ACF2D
:100AF000CB010E94A8037C01009749F0AE01B80128
:100B00000E948A05C8010E944404870153CF10E067
:100B100000E050CFFB01DC0102C001900D9241507A
:100B20005040D8F70895FB01DC0101900D920020A0
:100B3000E1F7089510E0C3E5D0E004C0FE010E9493
:0E0B4000A2032196C435D107C9F7F894FFCF60
:100B4E000000D6018000000000001E017E00AB00F8
:100B5E006B01DC00BA00CE004C4544206973206F57
:060B6E006E000D0A0000FC
:00000001FF
