:100000000C943B000C9463000C9463000C9463000C
:100010000C9463000C9463000C9463000C946300D4
:100020000C9463000C9463000C9463000C946300C4
:100030000C9463000C9463000C9463000C946300B4
:100040000C9490010C9463000C9400020C94DA015F
:100050000C9463000C9463000C9463000C94630094
:100060000C9463000C9463006364696E6F70737525
:1000700078585B00320211241FBECFEFD8E0DEBFFC
:10008000CDBF11E0A0E0B1E0E8E1F5E102C00590EC
:100090000D92AE31B107D9F721E0AEE1B1E001C078
:1000A0001D92AF3CB207E1F710E0CBE3D0E004C013
:1000B0002197FE010E94E404CA33D107C9F70E94C8
:1000C0006B020C948A0A0C940000AF92BF92CF92FC
:1000D000DF92EF92FF920F931F93CF93DF936C0108
:1000E0007B018B01040F151FEB015E01AE18BF08E9
:1000F000C017D10759F06991D601ED91FC9101909B
:10010000F081E02DC6010995892B79F7C501DF91B2
:10011000CF911F910F91FF90EF90DF90CF90BF9004
:10012000AF900895FC01538D448D252F30E0842F2E
:1001300090E0821B930B541710F0CF96089501970F
:100140000895FC01918D828D981761F0A28DAE0FFC
:10015000BF2FB11D5D968C91928D9F5F9F73928F83
:1001600090E008958FEF9FEF0895FC01918D828DAF
:10017000981731F0828DE80FF11D858D90E008957C
:100180008FEF9FEF0895FC01918D228D892F90E0D4
:10019000805C9F4F821B91098F739927089588E295
:1001A00091E00E94C30021E0892B09F420E0822F16
:1001B000089580E090E0892B29F00E94CF00811102
:1001C0000C9400000895FC01A48DA80FB92FB11D57
:1001D000A35ABF4F2C91848D90E001968F7399277D
:1001E000848FA689B7892C93A089B1898C9183705B
:1001F00080648C93938D848D981306C00288F38954
:10020000E02D80818F7D80830895EF92FF920F9380
:100210001F93CF93DF93EC0181E0888F9B8D8C8DB2
:1002200098131AC0E889F989808185FF15C09FB7A6
:10023000F894EE89FF896083E889F9898081837069
:10024000806480839FBF81E090E0DF91CF911F9118
:100250000F91FF90EF900895F62E0B8D10E00F5F39
:100260001F4F0F731127E02E8C8D8E110CC00FB60F
:1002700007FCFACFE889F989808185FFF5CFCE01A7
:100280000E94E300F1CFEB8DEC0FFD2FF11DE35A3F
:10029000FF4FF0829FB7F8940B8FEA89FB8980812A
:1002A0008062CFCFCF93DF93EC01888D8823B9F0A4
:1002B000AA89BB89E889F9898C9185FD03C0808171
:1002C00086FD0DC00FB607FCF7CF8C9185FFF2CFEE
:1002D000808185FFEDCFCE010E94E300E9CFDF9161
:1002E000CF910895682F88E291E00E94050190E087
:1002F00080E00895CF93C0E088E291E00E94C300BF
:10030000892B59F088E291E00E94A100C82F082EA5
:10031000000C990B0E940005EFCF8C2FCF91089510
:100320001F920F920FB60F9211242F933F938F932A
:100330009F93AF93BF938091240190912501A09149
:100340002601B09127013091230123E0230F2D379F
:1003500058F50196A11DB11D20932301809324011E
:1003600090932501A0932601B093270180911F014E
:1003700090912001A0912101B09122010196A11D2F
:10038000B11D80931F0190932001A0932101B09390
:100390002201BF91AF919F918F913F912F910F902B
:1003A0000FBE0F901F90189526E8230F0296A11DEF
:1003B000B11DD2CF1F920F920FB60F9211242F931F
:1003C0003F934F935F936F937F938F939F93AF93DD
:1003D000BF93EF93FF9388E291E00E94E300FF91C7
:1003E000EF91BF91AF919F918F917F916F915F91AD
:1003F0004F913F912F910F900FBE0F901F90189526
:100400001F920F920FB60F9211242F938F939F93E9
:10041000EF93FF93E0913801F09139018081E091F1
:100420003E01F0913F0182FD1BC09081809141010E
:100430008F5F8F7320914201821741F0E09141015B
:10044000F0E0E85DFE4F958F80934101FF91EF91C1
:100450009F918F912F910F900FBE0F901F90189525
:100460008081F4CFE8E2F1E01382128288EE93E01B
:10047000A0E0B0E084839583A683B7838AE091E00F
:100480009183808385EC90E09587848784EC90E06D
:100490009787868780EC90E0918B808B81EC90E051
:1004A000938B828B82EC90E0958B848B86EC90E032
:1004B000978B868B118E128E138E148E6AE771E0E5
:1004C00082E791E00E940E03E5ECF1E093838283E2
:1004D000918380830895789484B5826084BD84B5C7
:1004E000816084BD85B5826085BD85B5816085BD2F
:1004F00080916E00816080936E00109281008091E7
:10050000810082608093810080918100816080936E
:100510008100809180008160809380008091B10093
:1005200084608093B1008091B00081608093B000BE
:1005300080917A00846080937A0080917A00826052
:1005400080937A0080917A00816080937A00809114
:100550007A00806880937A001092C100E09138019F
:10056000F091390182E08083E0913401F09135010E
:100570001082E0913601F09137018FEC8083109268
:100580004001E0913C01F0913D0186E08083E091E3
:100590003A01F0913B01808180618083E0913A01D2
:1005A000F0913B01808188608083E0913A01F09175
:1005B0003B01808180688083E0913A01F0913B01AA
:1005C00080818F7D808388E191E09F938F930E944B
:1005D000EA040F900F90CEE1D1E00BE111E080E052
:1005E000E82E80E0F82EDF93CF931F930F930E94A5
:1005F000070580911E01082E000C990B0E94000532
:100600000F900F900F900F90E114F10461F30E948E
:10061000CF00882341F30E940000E5CF0F931F9382
:10062000CF93DF93009759F46115710541F4F0E021
:10063000E0E0CF01DF91CF911F910F9108958B01E1
:10064000EC016EE070E081E090E00E945903FC0153
:10065000892B69F380E883830115110571F01387F5
:10066000028781E883838091C5019091C601892B1F
:1006700021F4F093C601E093C5012097D1F2D18710
:10068000C0878381826083838091C7019091C80174
:10069000892B79F6F093C801E093C7018091C901D5
:1006A0009091CA01892B29F6F093CA01E093C90100
:1006B000C0CF0F931F93CF93DF93869F8001879FB7
:1006C000100D969F100D1124C8010E947503EC01B6
:1006D000009729F0A80170E060E00E94A304CE0119
:1006E000DF91CF911F910F9108950F931F93CF9397
:1006F000DF938230910510F482E090E0E091CD012B
:10070000F091CE0130E020E0B0E0A0E0309799F425
:100710002115310509F44AC0281B390B2430310555
:10072000D8F58A819B816115710589F1FB0193835D
:100730008283FE0111C040815181028113814817DB
:100740005907E0F04817590799F4109761F012968D
:100750000C93129713961C933296CF01DF91CF9191
:100760001F910F9108950093CD011093CE01F4CF06
:100770002115310551F04217530738F0A901DB016B
:100780009A01BD01DF01F801C1CFEF01F9CF9093CC
:10079000CE018093CD01CDCFFE01E20FF31F8193F7
:1007A00091932250310939832883D7CF2091CB01EF
:1007B0003091CC01232B41F42091020130910301AF
:1007C0003093CC012093CB012091000130910101A5
:1007D0002115310541F42DB73EB7409104015091E8
:1007E0000501241B350BE091CB01F091CC01E21700
:1007F000F307A0F42E1B3F0B2817390778F0AC0144
:100800004E5F5F4F2417350748F04E0F5F1F509320
:10081000CC014093CB01819391939FCFF0E0E0E036
:100820009CCFCF93DF930097E9F0FC0132971382BE
:100830001282A091CD01B091CE01ED0130E020E017
:100840001097A1F420813181820F931F2091CB0159
:100850003091CC012817390709F061C0F093CC0121
:10086000E093CB01DF91CF910895EA01CE17DF0726
:10087000E8F54A815B819E0141155105B1F7E90117
:10088000FB83EA8349915991C40FD51FEC17FD07EB
:1008900061F4808191810296840F951FE90199830B
:1008A0008883828193819B838A83F0E0E0E01296C3
:1008B0008D919C9113970097B9F52D913C911197CB
:1008C000CD010296820F931F2091CB013091CC0174
:1008D0002817390739F6309751F51092CE0110924A
:1008E000CD01B093CC01A093CB01BCCFD383C28305
:1008F00040815181840F951FC817D90761F44E5F5D
:100900005F4F88819981480F591F518340838A81A5
:100910009B81938382832115310509F0B0CFF09339
:10092000CE01E093CD019ECFFD01DC01C0CF13824B
:100930001282D7CF91110C94AA04803219F08950F9
:100940008550C8F70895DC0101C06D9341505040B7
:10095000E0F708959927882708952F923F924F92A4
:100960005F926F927F928F929F92AF92BF92CF923F
:10097000DF92EF92FF920F931F93CF93DF93CDB748
:10098000DEB7CA1BDB0B0FB6F894DEBF0FBECDBFC0
:1009900009942A88398848885F846E847D848C8491
:1009A0009B84AA84B984C884DF80EE80FD800C819A
:1009B0001B81AA81B981CE0FD11D0FB6F894DEBF7D
:1009C0000FBECDBFED010895EE0FFF1F0590F4910E
:1009D000E02D0994B0E0A0E0E0EFF4E00C94BD0459
:1009E000AE014B5F5F4FFA0161917191AF01809150
:1009F000C7019091C8010E941D05E2E00C94D90442
:100A00006091C7017091C8010E94E4090895B0E0A7
:100A1000A0E0EDE0F5E00C94BD04AE014B5F5F4F4C
:100A2000FA0161917191AF018091C5019091C60168
:100A30000E948208E2E00C94D904ABE0B0E0E3E26B
:100A4000F5E00C94AD047C013B018A01FC011782A6
:100A50001682838181FFC8C1CE0101965C01F70136
:100A60009381F30193FD859193FF81913F01882349
:100A700009F453C1853239F493FD859193FF819137
:100A80003F01853229F4B70190E00E94E409E7CFE5
:100A9000912C212C312CFFE1F31538F08B3211F120
:100AA00090F4803209F1833229F137FC3CC020ED0B
:100AB000280F2A3050F536FE20C08AE0989E200D7F
:100AC0001124922E06C08D3291F0803371F7689414
:100AD00030F8F30193FD859193FF81913F018111DE
:100AE000DACF21C0689431F8689432F8F2CF689474
:100AF00033F8EFCF689434F8ECCFEAE02E9E200D67
:100B00001124222E689435F8E4CF8E3229F436FC75
:100B100004C1689436F8DDCF8C3619F4689437F840
:100B2000D8CF8836B1F2982F9F7D95549330E0F05E
:100B30008336A1F18337C1F1833509F063C0280101
:100B4000F2E04F0E511CF801C080D180692D70E099
:100B500036FC02C06FEF7FEFC6010E9492094C0184
:100B6000689437F882010AC00C5F1F4FFFE3F983D6
:100B700088248394912C6501E89437F833FE2DC0C6
:100B8000522C8114910471F5552009F468CFB701F6
:100B900080E290E00E94E4095A94F6CFF801808147
:100BA00089830E5F1F4FE4CF2801F2E04F0E511CE6
:100BB000F801C080D180692D70E036FC02C06FEF73
:100BC0007FEFC6010E949D094C018201D5CFB7017C
:100BD00080E290E00E94E4092A942814190409F0A4
:100BE000B0F7CECFF60137FC859137FE81916F01CA
:100BF000B70190E00E94E40951105A94F1E08F1A75
:100C00009108BFCF843619F0893609F077C0F80112
:100C100037FE6BC060817181828193810C5F1F4FB1
:100C2000F32DFF763F2E97FF09C090958095709524
:100C300061957F4F8F4F9F4F689437F82AE030E0DF
:100C4000A5010E942C0AC82ECA188C2C432C36FEF3
:100C50000CC0E89440F8C91440F434FE05C032FCDE
:100C600003C0F32DFE7E4F2E892C44FE95C0FE015D
:100C7000EC0DF11D8081803309F087C0242D297E81
:100C8000422E842D8870582E43FC95C040FE8FC0A4
:100C90009C2C821418F42C0C922C981844FE91C0B1
:100CA000B70180E390E00E94E40942FE09C088E7B2
:100CB00090E041FE02C088E590E0B7010E94E4099F
:100CC000C91408F48AC0CA94D12C9FEFC91AD90A52
:100CD000CA0CDB1CF60182916F01B70190E00E9403
:100CE000E409AC14BD04B1F74FCF60817181072EC8
:100CF000000C880B990B0E5F1F4F92CFD32CE894FA
:100D0000D4F82AE030E0853739F1232D297FD22E1F
:100D10008F3601F148F48835A9F0F7018681978173
:100D20002B96E2E10C94C904803749F08837A9F783
:100D3000D4FE02C06894D2F820E130E00DC068947F
:100D4000D4F8F6CF34FE03C0822F8660D82E20E17F
:100D500032E002C028E030E0F801D7FE0FC0608129
:100D60007181828193810C5F1F4FA5010E942C0A23
:100D7000C82ECA183D2CE89437F867CF608171817E
:100D800090E080E00E5F1F4FF0CF42FC02C08394E2
:100D900078CF8394839475CF842D867809F471CFAE
:100DA000F6CFB70180E290E00E94E40983948214B8
:100DB000C0F3512C73CF522C5818821408F46ECF04
:100DC000F8CF842D867809F47BCF8BE241FE80E258
:100DD00047FC8DE2B70190E071CFB70180E390E06E
:100DE0000E94E4099A946CCF8FEF9FEF99CF20FD7A
:100DF00009C0FC0123FD05C022FF02C0738362838A
:100E000051834083089544FD17C046FD1DC0DB019A
:100E1000FC01AA0FBB1FEE1FFF1F1094D1F76A0F32
:100E20007B1F8E1F9F1F660F771F881F991F620FE2
:100E3000711D811D911D089533E0660F771F881F76
:100E4000991F3150D1F7F3CF34E0F7CF0F931F93B1
:100E5000CF93DF938C01C8010E94A809EC0197FD94
:100E600008C00E949A04892BB1F7B801CE010E94F4
:100E7000140ACE01DF91CF911F910F9108958F92A7
:100E80009F92AF92BF92EF92FF920F931F93CF93D7
:100E9000DF938C01D62F7A01B22E0E94A8099C0103
:100EA00033272B32310529F02D323105A9F468940E
:100EB000B7F8D15061F480E0DF91CF911F910F918D
:100EC000FF90EF90BF90AF909F908F900895C801D2
:100ED0000E94A80997FDEFCFCB2DCD7F2B2D20733E
:100EE000F9F48033E9F4AA24AA94AD0E89F0C8017C
:100EF0000E94A80997FD0CC0282F2F7D283561F48A
:100F0000C264D25029F0C8010E94A80997FF08C006
:100F1000812C912C54011BC0B6FE2BC0C260DA2D6F
:100F2000812C912C540120ED280F283028F1C4FD8C
:100F300009C02A3008F1C6FF05C02F7D3FEE320FF1
:100F40003630C8F0B8010E94140AC1FFB4CFC7FF01
:100F500008C0B094A09490948094811C911CA11C12
:100F6000B11C2C2FB501A401C7010E94F70681E036
:100F7000A3CFC261D4CF27504C2FC501B4010E942A
:100F800003074B015C01C260D15009F3C8010E9404
:100F9000A80997FFC8CFD9CFA0E2B0E0E2EDF7E013
:100FA0000C94B2045C01962E7A01CE0101966C017C
:100FB00080E2F60111928A95E9F7F501B381890182
:100FC00030E020E0712C812CA0E041E050E0F801FD
:100FD000B3FD8591B3FF8191982F8F01811107C0D7
:100FE00010E000E0C801A096EDE00C94CE048E3530
:100FF00019F42115310541F1A21713064CF48D3572
:1010000049F18D3229F4811006C0882483941DC0D3
:10101000882009F464C0E92FE695E695E695EC0D85
:10102000FD2DF11D892F8770BA0101C0660F8A95C9
:10103000EAF78081682B6083791651F0971510F4D8
:101040009F5FE9CF9150E7CFA1E02F5F3F4FBFCF28
:10105000812CFBCF882019F08E8180628E83AA2399
:1010600059F0F6019E012F5D3F4F8081809580836E
:101070003196E217F307C9F788248394C5010E94CB
:10108000A80997FD16C0E82FE695E695E695EC0DC4
:10109000FD2DF11D208130E0AC014770552702C0C5
:1010A000359527954A95E2F720FD06C0B5010E94C7
:1010B000140A882069F094CFE114F10429F0F701B3
:1010C0008083C70101967C019A94812C9110D6CF20
:1010D000E114F10409F486CFF701108283CFE82FE1
:1010E000E695E695E695EC0DFD2DF11D982F977090
:1010F000BA0101C0660F9A95EAF79081692B608367
:10110000782EA3CFB0E0A0E0E8E8F8E00C94B004BB
:101110006C01EB015A01FC0117821682512CF60179
:10112000E380FE01E3FC8591E3FE8191182FEF013E
:101130008823E9F090E00E949A04892B21F0C601EF
:101140000E942607ECCF153241F4FE01E3FC159115
:10115000E3FE1191EF01153269F4C6010E94A8095E
:1011600097FD8EC01817D9F2B6010E94140A852D7A
:1011700090E08AC000E01A3231F4E3FC1591E3FEFE
:101180001191EF0101E0F12C20ED210F2A3048F1FF
:1011900001FF37C0FF2059F31836B1F11C3609F4AE
:1011A0003DC0112321F3612F70E088E690E00E949A
:1011B0008709892BE1F2912C812C00FD06C0F501F5
:1011C00080809180C50102965C011E3679F5F6019A
:1011D0004681578170E060E0202FC4010E94F7062D
:1011E0009ECF02606F2D70E090E080E040E20E94B0
:1011F0000307F62EFE01E3FC1591E3FE1191EF01CA
:10120000C3CFFF24FA94C8CFFE01E3FC1591E3FE9F
:101210001191EF01183609F0C4CF08600460FE0197
:10122000E3FC1591E3FE1191EF01BBCF1336C1F43E
:1012300001FD02C0FF24F394C6010E94A80997FD96
:101240001FC08114910429F0F4018083C401019628
:101250004C01FA94F110F0CF00FD61CF53945FCFB1
:101260001B35B9F49E01A4016F2DC6010E94CC0765
:10127000EC01892B89F7F6018381807309F477CF1C
:101280008FEF9FEF511073CFCDB7DEB7EFE00C9427
:10129000CC04C6010E94260797FDF2CF1F36A9F1A4
:1012A00030F4143641F0193639F0006405C01337B4
:1012B000B9F01537D1F70062202FA4016F2DC601B8
:1012C0000E943F078111C8CFD6CF8114910429F025
:1012D000F4016082C40101964C01FA94FF2071F080
:1012E000C6010E94A8093C0197FD08C00E949A040B
:1012F000892B59F3B601C3010E94140A8114910489
:1013000009F4AACFF4011082A7CF0061D5CFFC0168
:101310000590061621F00020D9F7C00108953197F5
:10132000CF010895FC010590615070400110D8F77D
:10133000809590958E0F9F1F0895FC01615070401D
:1013400001900110D8F7809590958E0F9F1F0895FA
:10135000CF93DF93EC012B8120FF1AC026FF0CC036
:101360002F7B2B838E819F8101969F838E838A8121
:1013700090E0DF91CF91089522FF18C0E881F981B4
:101380008081082E000C990B009729F420622B8392
:101390008FEF9FEFEECF3196F983E8832E813F8167
:1013A0002F5F3F4F3F832E839927E3CFEA85FB854D
:1013B000099597FFF3CF2B81019621F080E2822BD4
:1013C0008B83E6CF80E1FBCF0F931F93CF93DF9307
:1013D000182F092FEB018B8181FD09C01FEF0FEF43
:1013E000812F902FDF91CF911F910F91089582FF50
:1013F00014C02E813F818C819D81281739073CF4D0
:10140000E881F981CF0101969983888310838E81C9
:101410009F8101969F838E83E3CFE885F985812F95
:101420000995892BA1F3DACFFB01238120FF11C09D
:1014300026FD0FC08F3F980771F082832F7D2064B7
:1014400023832681378121503109378326839927C9
:1014500008958FEF9FEF0895FA01AA27283051F1E0
:10146000203181F1E8946F936E7F6E5F7F4F8F4FD5
:101470009F4FAF4FB1E03ED0B4E03CD0670F781F34
:10148000891F9A1FA11D680F791F8A1F911DA11D19
:101490006A0F711D811D911DA11D20D009F4689452
:1014A0003F912AE0269F11243019305D3193DEF6FA
:1014B000CF010895462F4770405D4193B3E00FD0B0
:1014C000C9F7F6CF462F4F70405D4A3318F0495D9B
:1014D00031FD4052419302D0A9F7EACFB4E0A6957E
:1014E0009795879577956795BA95C9F700976105A0
:1014F000710508959B01AC010A2E069457954795F6
:1015000037952795BA95C9F7620F731F841F951FEA
:08151000A01D0895F894FFCF1F
:101518000000CF0180000000000005016500920076
:0E1528005201C300A100B500310D0025630083
:00000001FF
