:100000000C943B000C9463000C9463000C9463000C
:100010000C9463000C9463000C9463000C946300D4
:100020000C9463000C9463000C9463000C946300C4
:100030000C9463000C9463000C9463000C946300B4
:100040000C948B010C9463000C94FB010C94D5016F
:100050000C9463000C9463000C9463000C94630094
:100060000C9463000C9463006364696E6F70737525
:1000700078585B00DE0211241FBECFEFD8E0DEBF50
:10008000CDBF11E0A0E0B1E0E0EAF0E102C00590F0
:100090000D92A032B107D9F721E0A0E2B1E001C092
:1000A0001D92A13DB207E1F710E0CBE3D0E004C020
:1000B0002197FE010E949E04CA33D107C9F70E940E
:1000C0002D020C944E080C940000AF92BF92CF9278
:1000D000DF92EF92FF920F931F93CF93DF936C0108
:1000E0007B018B01040F151FEB015E01AE18BF08E9
:1000F000C017D10759F06991D601ED91FC9101909B
:10010000F081E02DC6010995892B79F7C501DF91B2
:10011000CF911F910F91FF90EF90DF90CF90BF9004
:10012000AF900895FC01538D448D252F30E0842F2E
:1001300090E0821B930B541710F0CF96089501970F
:100140000895FC01918D828D981761F0A28DAE0FFC
:10015000BF2FB11D5D968C91928D9F5F9F73928F83
:1001600090E008958FEF9FEF0895FC01918D828DAF
:10017000981731F0828DE80FF11D858D90E008957C
:100180008FEF9FEF0895FC01918D228D892F90E0D4
:10019000805C9F4F821B91098F739927089580E29D
:1001A00091E00E94C30021E0892B09F420E0822F16
:1001B000089580E090E0892B29F00E94CF00811102
:1001C0000C9400000895CF93C0E080E291E00E947B
:1001D000C300892B31F480E291E00E94A100C82F76
:1001E000F4CF8C2FCF910895FC01A48DA80FB92FC7
:1001F000B11DA35ABF4F2C91848D90E001968F734F
:100200009927848FA689B7892C93A089B1898C916D
:10021000837080648C93938D848D981306C00288BC
:10022000F389E02D80818F7D80830895EF92FF9286
:100230000F931F93CF93DF93EC0181E0888F9B8D09
:100240008C8D98131AC0E889F989808185FF15C0C3
:100250009FB7F894EE89FF896083E889F9898081E6
:100260008370806480839FBF81E090E0DF91CF91B5
:100270001F910F91FF90EF900895F62E0B8D10E0D7
:100280000F5F1F4F0F731127E02E8C8D8E110CC046
:100290000FB607FCFACFE889F989808185FFF5CF91
:1002A000CE010E94F400F1CFEB8DEC0FFD2FF11D7C
:1002B000E35AFF4FF0829FB7F8940B8FEA89FB89CE
:1002C00080818062CFCFCF93DF93EC01888D88232C
:1002D000B9F0AA89BB89E889F9898C9185FD03C0A9
:1002E000808186FD0DC00FB607FCF7CF8C9185FF8E
:1002F000F2CF808185FFEDCFCE010E94F400E9CFDF
:10030000DF91CF910895682F80E291E00E9416015D
:1003100090E080E008951F920F920FB60F92112483
:100320002F933F938F939F93AF93BF938091C3017C
:100330009091C401A091C501B091C6013091C20154
:1003400023E0230F2D3758F50196A11DB11D2093F1
:10035000C2018093C3019093C401A093C501B093DF
:10036000C6018091BE019091BF01A091C001B091E2
:10037000C1010196A11DB11D8093BE019093BF01E3
:10038000A093C001B093C101BF91AF919F918F9194
:100390003F912F910F900FBE0F901F90189526E858
:1003A000230F0296A11DB11DD2CF1F920F920FB63F
:1003B0000F9211242F933F934F935F936F937F93EB
:1003C0008F939F93AF93BF93EF93FF9380E291E05E
:1003D0000E94F400FF91EF91BF91AF919F918F9197
:1003E0007F916F915F914F913F912F910F900FBE31
:1003F0000F901F9018951F920F920FB60F92112415
:100400002F938F939F93EF93FF93E0913001F0919F
:1004100031018081E0913601F091370182FD1BC0EE
:100420009081809139018F5F8F7320913A018217FB
:1004300041F0E0913901F0E0E05EFE4F958F80934E
:100440003901FF91EF919F918F912F910F900FBEE6
:100450000F901F9018958081F4CF789484B58260B6
:1004600084BD84B5816084BD85B5826085BD85B558
:10047000816085BD80916E00816080936E001092D6
:100480008100809181008260809381008091810051
:1004900081608093810080918000816080938000E2
:1004A0008091B10084608093B1008091B000816040
:1004B0008093B00080917A00846080937A0080916C
:1004C0007A00826080937A0080917A0081608093C4
:1004D0007A0080917A00806880937A001092C1003F
:1004E000E0913001F091310182E08083E0912C01B4
:1004F000F0912D011082E0912E01F0912F018FECEF
:10050000808310923801E0913401F091350186E04A
:100510008083E0913201F09133018081806180839A
:10052000E0913201F0913301808188608083E09115
:100530003201F0913301808180688083E091320143
:10054000F091330180818F7D808363EE70E083E8DA
:1005500091E00E940B039093CA018093C90190938C
:10056000C8018093C70188E191E00E94AB0481E358
:1005700090E00E94A404CDEBD1E00CE111E080E01A
:10058000E82E80E0F82EDF93CF931F930F930E9405
:10059000D6048091BD01082E000C990B0E94A40482
:1005A0000F900F900F900F90E114F10461F30E94EF
:1005B000CF00882341F30E940000E5CFE0E2F1E0A4
:1005C0001382128288EE93E0A0E0B0E084839583EA
:1005D000A683B7838AE091E09183808385EC90E0E5
:1005E0009587848784EC90E09787868780EC90E0FD
:1005F000918B808B81EC90E0938B828B82EC90E0EE
:10060000958B848B86EC90E0978B868B118E128E67
:10061000138E148E08950F931F93CF93DF9300973B
:1006200059F46115710541F4F0E0E0E0CF01DF918C
:10063000CF911F910F9108958B01EC016EE070E056
:1006400081E090E00E945603FC01892B69F380E869
:1006500083830115110571F01387028781E8838375
:100660008091C7019091C801892B21F4F093C801B2
:10067000E093C7012097D1F2D187C0878381826040
:1006800083838091C9019091CA01892B79F6F093F7
:10069000CA01E093C9018091CB019091CC01892BD3
:1006A00029F6F093CC01E093CB01C0CF0F931F93B9
:1006B000CF93DF93869F8001879F100D969F100D2B
:1006C0001124C8010E947203EC01009729F0A801CF
:1006D00070E060E00E949704CE01DF91CF911F91FE
:1006E0000F9108950F931F93CF93DF93823091055D
:1006F00010F482E090E0E091CF01F091D00130E081
:1007000020E0B0E0A0E0309799F42115310509F41C
:100710004AC0281B390B24303105D8F58A819B81CA
:100720006115710589F1FB0193838283FE0111C07C
:10073000408151810281138148175907E0F0481721
:10074000590799F4109761F012960C93129713962B
:100750001C933296CF01DF91CF911F910F91089595
:100760000093CF011093D001F4CF2115310551F042
:100770004217530738F0A901DB019A01BD01DF01DF
:10078000F801C1CFEF01F9CF9093D0018093CF0151
:10079000CDCFFE01E20FF31F8193919322503109D7
:1007A00039832883D7CF2091CD013091CE01232BDF
:1007B00041F420910201309103013093CE01209346
:1007C000CD0120910001309101012115310541F445
:1007D0002DB73EB74091040150910501241B350B04
:1007E000E091CD01F091CE01E217F307A0F42E1BAA
:1007F0003F0B2817390778F0AC014E5F5F4F241785
:10080000350748F04E0F5F1F5093CE014093CD0146
:10081000819391939FCFF0E0E0E09CCFCF93DF9363
:100820000097E9F0FC01329713821282A091CF0168
:10083000B091D001ED0130E020E01097A1F42081CB
:100840003181820F931F2091CD013091CE01281765
:10085000390709F061C0F093CE01E093CD01DF913B
:10086000CF910895EA01CE17DF07E8F54A815B8151
:100870009E0141155105B1F7E901FB83EA834991D6
:100880005991C40FD51FEC17FD0761F48081918148
:100890000296840F951FE901998388838281938151
:1008A0009B838A83F0E0E0E012968D919C911397F0
:1008B0000097B9F52D913C911197CD010296820FC9
:1008C000931F2091CD013091CE012817390739F6B9
:1008D000309751F51092D0011092CF01B093CE0114
:1008E000A093CD01BCCFD383C28340815181840FBB
:1008F000951FC817D90761F44E5F5F4F88819981B2
:10090000480F591F518340838A819B81938382833F
:100910002115310509F0B0CFF093D001E093CF015C
:100920009ECFFD01DC01C0CF13821282D7CFDC0144
:1009300001C06D9341505040E0F70895EE0FFF1F46
:100940000590F491E02D09946091C9017091CA015C
:100950000E94CC0708950F931F93CF93DF93E091EC
:10096000C901F091CA012381EC0110E000E021FDF2
:1009700008C00FEF1FEF14C00995892B11F00FEF7E
:100980001FEF89916091C9017091CA01DB0118962E
:10099000ED91FC918111F0CF8AE00995892B49F7FF
:1009A000C801DF91CF911F910F910895B0E0A0E0B1
:1009B000ECEDF4E00C942708AE014B5F5F4FFA01B9
:1009C00061917191AF018091C7019091C8010E941E
:1009D0007706E2E00C94430820FD09C0FC0123FDEA
:1009E00005C022FF02C07383628351834083089550
:1009F00044FD17C046FD1DC0DB01FC01AA0FBB1F53
:100A0000EE1FFF1F1094D1F76A0F7B1F8E1F9F1FD1
:100A1000660F771F881F991F620F711D811D911D21
:100A2000089533E0660F771F881F991F3150D1F763
:100A3000F3CF34E0F7CF0F931F93CF93DF938C0165
:100A4000C8010E949007EC0197FD08C00E947C0736
:100A5000892BB1F7B801CE010E94FC07CE01DF91CE
:100A6000CF911F910F9108958F929F92AF92BF9255
:100A7000EF92FF920F931F93CF93DF938C01D62FAA
:100A80007A01B22E0E9490079C0133272B32310548
:100A900029F02D323105A9F46894B7F8D15061F4EA
:100AA00080E0DF91CF911F910F91FF90EF90BF9069
:100AB000AF909F908F900895C8010E94900797FD76
:100AC000EFCFCB2DCD7F2B2D2073F9F48033E9F4BC
:100AD000AA24AA94AD0E89F0C8010E94900797FD40
:100AE0000CC0282F2F7D283561F4C264D25029F024
:100AF000C8010E94900797FF08C0812C912C5401D7
:100B00001BC0B6FE2BC0C260DA2D812C912C540183
:100B100020ED280F283028F1C4FD09C02A3008F143
:100B2000C6FF05C02F7D3FEE320F3630C8F0B8014A
:100B30000E94FC07C1FFB4CFC7FF08C0B094A094C7
:100B400090948094811C911CA11CB11C2C2FB50188
:100B5000A401C7010E94EC0481E0A3CFC261D4CFFD
:100B600027504C2FC501B4010E94F8044B015C01D1
:100B7000C260D15009F3C8010E94900797FFC8CF07
:100B8000D9CFA0E2B0E0E7ECF5E00C941C085C01E2
:100B9000962E7A01CE0101966C0180E2F601119247
:100BA0008A95E9F7F501B381890130E020E0712CE5
:100BB000812CA0E041E050E0F801B3FD8591B3FF46
:100BC0008191982F8F01811107C010E000E0C801CA
:100BD000A096EDE00C9438088E3519F421153105F6
:100BE00041F1A21713064CF48D3549F18D3229F4E9
:100BF000811006C0882483941DC0882009F464C035
:100C0000E92FE695E695E695EC0DFD2DF11D892F72
:100C10008770BA0101C0660F8A95EAF78081682B58
:100C20006083791651F0971510F49F5FE9CF9150CA
:100C3000E7CFA1E02F5F3F4FBFCF812CFBCF8820B4
:100C400019F08E8180628E83AA2359F0F6019E01ED
:100C50002F5D3F4F8081809580833196E217F307A7
:100C6000C9F788248394C5010E94900797FD16C098
:100C7000E82FE695E695E695EC0DFD2DF11D20811A
:100C800030E0AC014770552702C0359527954A954D
:100C9000E2F720FD06C0B5010E94FC07882069F03C
:100CA00094CFE114F10429F0F7018083C701019684
:100CB0007C019A94812C9110D6CFE114F10409F4AF
:100CC00086CFF701108283CFE82FE695E695E6956B
:100CD000EC0DFD2DF11D982F9770BA0101C0660F24
:100CE0009A95EAF79081692B6083782EA3CFB0E0C4
:100CF000A0E0EDE7F6E00C941A086C01EB015A0154
:100D0000FC0117821682512CF601E380FE01E3FC00
:100D10008591E3FE8191182FEF018823E9F090E09F
:100D20000E947C07892B21F0C6010E941B05ECCF95
:100D3000153241F4FE01E3FC1591E3FE1191EF0140
:100D4000153269F4C6010E94900797FD8EC01817EE
:100D5000D9F2B6010E94FC07852D90E08AC000E020
:100D60001A3231F4E3FC1591E3FE1191EF0101E039
:100D7000F12C20ED210F2A3048F101FF37C0FF2070
:100D800059F31836B1F11C3609F43DC0112321F393
:100D9000612F70E088E690E00E948507892BE1F2E0
:100DA000912C812C00FD06C0F50180809180C50149
:100DB00002965C011E3679F5F6014681578170E096
:100DC00060E0202FC4010E94EC049ECF02606F2DD2
:100DD00070E090E080E040E20E94F804F62EFE0110
:100DE000E3FC1591E3FE1191EF01C3CFFF24FA94C8
:100DF000C8CFFE01E3FC1591E3FE1191EF01183617
:100E000009F0C4CF08600460FE01E3FC1591E3FE25
:100E10001191EF01BBCF1336C1F401FD02C0FF24D5
:100E2000F394C6010E94900797FD1FC0811491049E
:100E300029F0F4018083C40101964C01FA94F11069
:100E4000F0CF00FD61CF53945FCF1B35B9F49E0105
:100E5000A4016F2DC6010E94C105EC01892B89F701
:100E6000F6018381807309F477CF8FEF9FEF5110E4
:100E700073CFCDB7DEB7EFE00C943608C6010E9401
:100E80001B0597FDF2CF1F36A9F130F4143641F05F
:100E9000193639F0006405C01337B9F01537D1F7AA
:100EA0000062202FA4016F2DC6010E94340581111C
:100EB000C8CFD6CF8114910429F0F4016082C40117
:100EC00001964C01FA94FF2071F0C6010E94900730
:100ED0003C0197FD08C00E947C07892B59F3B6019D
:100EE000C3010E94FC078114910409F4AACFF40104
:100EF0001082A7CF0061D5CF91110C9414088032D5
:100F000019F089508550C8F70895FC010590061620
:100F100021F00020D9F7C00108953197CF0108953D
:100F2000CF93DF93EC012B8120FF1AC026FF0CC06A
:100F30002F7B2B838E819F8101969F838E838A8155
:100F400090E0DF91CF91089522FF18C0E881F981E8
:100F50008081082E000C990B009729F420622B83C6
:100F60008FEF9FEFEECF3196F983E8832E813F819B
:100F70002F5F3F4F3F832E839927E3CFEA85FB8581
:100F8000099597FFF3CF2B81019621F080E2822B08
:100F90008B83E6CF80E1FBCF0F931F93CF93DF933B
:100FA000182F092FEB018B8181FD09C01FEF0FEF77
:100FB000812F902FDF91CF911F910F91089582FF84
:100FC00014C02E813F818C819D81281739073CF404
:100FD000E881F981CF0101969983888310838E81FE
:100FE0009F8101969F838E83E3CFE885F985812FCA
:100FF0000995892BA1F3DACFFB01238120FF11C0D2
:1010000026FD0FC08F3F980771F082832F7D2064EB
:1010100023832681378121503109378326839927FD
:1010200008958FEF9FEF08959927882708952F92AD
:101030003F924F925F926F927F928F929F92AF9268
:10104000BF92CF92DF92EF92FF920F931F93CF93B5
:10105000DF93CDB7DEB7CA1BDB0B0FB6F894DEBF4C
:101060000FBECDBF09942A88398848885F846E8472
:101070007D848C849B84AA84B984C884DF80EE80BC
:10108000FD800C811B81AA81B981CE0FD11D0FB6C5
:10109000F894DEBF0FBECDBFED010895F894FFCFE9
:1010A0000000D101800000000000160165009200E0
:1010B0006301C300A100B500496F6E002563000005
:107E0000112484B714BE81FFF0D085E080938100F7
:107E100082E08093C00088E18093C10086E0809377
:107E2000C20080E18093C4008EE0C9D0259A86E02C
:107E300020E33CEF91E0309385002093840096BBD3
:107E4000B09BFECF1D9AA8958150A9F7CC24DD24C4
:107E500088248394B5E0AB2EA1E19A2EF3E0BF2EE7
:107E6000A2D0813461F49FD0082FAFD0023811F036
:107E7000013811F484E001C083E08DD089C08234E0
:107E800011F484E103C0853419F485E0A6D080C0E4
:107E9000853579F488D0E82EFF2485D0082F10E0AE
:107EA000102F00270E291F29000F111F8ED06801E7
:107EB0006FC0863521F484E090D080E0DECF843638
:107EC00009F040C070D06FD0082F6DD080E0C81688
:107ED00080E7D80618F4F601B7BEE895C0E0D1E017
:107EE00062D089930C17E1F7F0E0CF16F0E7DF06D8
:107EF00018F0F601B7BEE89568D007B600FCFDCFD4
:107F0000A601A0E0B1E02C9130E011968C91119780
:107F100090E0982F8827822B932B1296FA010C0160
:107F200087BEE89511244E5F5F4FF1E0A038BF0790
:107F300051F7F601A7BEE89507B600FCFDCF97BE46
:107F4000E89526C08437B1F42ED02DD0F82E2BD052
:107F50003CD0F601EF2C8F010F5F1F4F84911BD097
:107F6000EA94F801C1F70894C11CD11CFA94CF0C13
:107F7000D11C0EC0853739F428D08EE10CD085E9AC
:107F80000AD08FE07ACF813511F488E018D01DD067
:107F900080E101D065CF982F8091C00085FFFCCF94
:107FA0009093C60008958091C00087FFFCCF809118
:107FB000C00084FD01C0A8958091C6000895E0E648
:107FC000F0E098E1908380830895EDDF803219F02E
:107FD00088E0F5DFFFCF84E1DECF1F93182FE3DFCA
:107FE0001150E9F7F2DF1F91089580E0E8DFEE27F6
:047FF000FF270994CA
:027FFE00040479
:0400000300007E007B
:00000001FF
