:100000000C9463000C948B000C948B000C948B006C
:100010000C948B000C948B000C948B000C948B0034
:100020000C948B000C948B000C948B000C948B0024
:100030000C948B000C948B000C948B000C948B0014
:100040000C942C020C948B000C949C020C94760261
:100050000C948B000C948B000C948B000C948B00F4
:100060000C948B000C948B006364696E6F707375D5
:1000700078585B000000000800020100000304073C
:100080000000000000000000000000002500280023
:100090002B0000000000240027002A0004040404B0
:1000A0000404040402020202020203030303030322
:1000B00001020408102040800102040810200102FF
:1000C00004081020CE0211241FBECFEFD8E0DEBFFF
:1000D000CDBF11E0A0E0B1E0E4EDF9E102C0059090
:1000E0000D92A834B107D9F721E0A8E4B1E001C02E
:1000F0001D92AA3FB207E1F710E0C3E6D0E004C0CA
:100100002197FE010E946C06C236D107C9F70E94F2
:100110004F030C94E80C0C940000AF92BF92CF9266
:10012000DF92EF92FF920F931F93CF93DF936C01B7
:100130007B018B01040F151FEB015E01AE18BF0898
:10014000C017D10759F06991D601ED91FC9101904A
:10015000F081E02DC6010995892B79F7C501DF9162
:10016000CF911F910F91FF90EF90DF90CF90BF90B4
:10017000AF900895FC01538D448D252F30E0842FDE
:1001800090E0821B930B541710F0CF9608950197BF
:100190000895FC01918D828D981761F0A28DAE0FAC
:1001A000BF2FB11D5D968C91928D9F5F9F73928F33
:1001B00090E008958FEF9FEF0895FC01918D828D5F
:1001C000981731F0828DE80FF11D858D90E008952C
:1001D0008FEF9FEF0895FC01918D228D892F90E084
:1001E000805C9F4F821B91098F739927089581E549
:1001F00091E00E94EB0021E0892B09F420E0822F9E
:10020000089580E090E0892B29F00E94F700811189
:100210000C9400000895FC01A48DA80FB92FB11D06
:10022000A35ABF4F2C91848D90E001968F7399272C
:10023000848FA689B7892C93A089B1898C9183700A
:1002400080648C93938D848D981306C00288F38903
:10025000E02D80818F7D80830895EF92FF920F9330
:100260001F93CF93DF93EC0181E0888F9B8D8C8D62
:1002700098131AC0E889F989808185FF15C09FB756
:10028000F894EE89FF896083E889F9898081837019
:10029000806480839FBF81E090E0DF91CF911F91C8
:1002A0000F91FF90EF900895F62E0B8D10E00F5FE9
:1002B0001F4F0F731127E02E8C8D8E110CC00FB6BF
:1002C00007FCFACFE889F989808185FFF5CFCE0157
:1002D0000E940B01F1CFEB8DEC0FFD2FF11DE35AC6
:1002E000FF4FF0829FB7F8940B8FEA89FB898081DA
:1002F0008062CFCFCF93DF93EC01888D8823B9F054
:10030000AA89BB89E889F9898C9185FD03C0808120
:1003100086FD0DC00FB607FCF7CF8C9185FFF2CF9D
:10032000808185FFEDCFCE010E940B01E9CFDF91E7
:10033000CF91089590E0FC01EC58FF4F2491FC010F
:10034000E055FF4F3491FC01E456FF4FE491EE235A
:10035000C9F0222339F0233001F1A8F4213019F13A
:10036000223029F1F0E0EE0FFF1FE857FF4FA59173
:10037000B4918FB7F894EC91611126C030953E236B
:100380003C938FBF08952730A9F02830C9F024305E
:1003900049F7809180008F7D03C0809180008F7726
:1003A00080938000DFCF84B58F7784BDDBCF84B5A9
:1003B0008F7DFBCF8091B0008F778093B000D2CF3C
:1003C0008091B0008F7DF9CF3E2BDACF682F81E589
:1003D00091E00E942D0190E080E00895CF93C0E06D
:1003E00081E591E00E94EB00892B59F081E591E0D5
:1003F0000E94C900C82F082E000C990B0E945E07AE
:10040000EFCF8C2FCF9108950F931F93CF93DF934E
:10041000EC0188819981009759F02A813B81261748
:10042000370730F081E0DF91CF911F910F91089550
:100430008B016F5F7F4F0E947206009759F099837E
:1004400088831B830A832C813D81232B59F7FC0170
:100450001082E8CF80E0E7CF1F920F920FB60F9285
:1004600011242F933F938F939F93AF93BF938091CA
:100470004D0190914E01A0914F01B09150013091EA
:100480004C0123E0230F2D3758F50196A11DB11D16
:1004900020934C0180934D0190934E01A0934F0106
:1004A000B09350018091480190914901A0914A0177
:1004B000B0914B010196A11DB11D8093480190930D
:1004C0004901A0934A01B0934B01BF91AF919F9115
:1004D0008F913F912F910F900FBE0F901F90189505
:1004E00026E8230F0296A11DB11DD2CF1F920F92B5
:1004F0000FB60F9211242F933F934F935F936F93F7
:100500007F938F939F93AF93BF93EF93FF9381E577
:1005100091E00E940B01FF91EF91BF91AF919F91EC
:100520008F917F916F915F914F913F912F910F909C
:100530000FBE0F901F9018951F920F920FB60F923B
:1005400011242F938F939F93EF93FF93E091610179
:10055000F09162018081E0916701F091680182FD74
:100560001BC0908180916A018F5F8F7320916B0116
:10057000821741F0E0916A01F0E0EF5AFE4F958F4B
:1005800080936A01FF91EF919F918F912F910F902E
:100590000FBE0F901F9018958081F4CFCF93DF93FB
:1005A000109254011092530188EE93E0A0E0B0E065
:1005B0008093550190935601A0935701B093580131
:1005C0008AE091E0909352018093510185EC90E094
:1005D00090935E0180935D0184EC90E090936001C4
:1005E00080935F0180EC90E09093620180936101C1
:1005F00081EC90E0909364018093630182EC90E041
:10060000909366018093650186EC90E09093680179
:100610008093670110926A0110926B0110926C0135
:1006200010926D016EEE71E086EE91E00E949604EC
:100630009093F3018093F2019093F1018093F00184
:1006400083E090E00E94FD04DC018CE090E01196D4
:100650009C938E93ECEBF0E09491E8EAF0E0249127
:10066000222399F030E0220F331FF901EE56FF4F9D
:10067000C591D491F901E857FF4F259134918FB777
:10068000F894E881E92BE8838FBF12961C921297A9
:10069000B093EF01A093EE01DF91CF910895CF9336
:1006A000DF93CDB7DEB729970FB6F894DEBF0FBE44
:1006B000CDBF789484B5826084BD84B5816084BDEB
:1006C00085B5826085BD85B5816085BD80916E00F0
:1006D000816080936E001092810080918100826021
:1006E000809381008091810081608093810080915E
:1006F00080008160809380008091B100846080934D
:10070000B1008091B00081608093B00080917A0048
:10071000846080937A0080917A00826080937A006E
:1007200080917A00816080937A0080917A0080685D
:1007300080937A001092C100E0916101F091620112
:1007400082E08083E0915D01F0915E011082E09192
:100750005F01F09160018FEC808310926901E0915C
:100760006501F091660186E08083E0916301F0917C
:100770006401808180618083E0916301F091640174
:10078000808188608083E0916301F09164018081C1
:1007900080688083E0916301F091640180818F7DA6
:1007A000808388E191E09F938F930E9448070F9088
:1007B0000F903E0189E0680E711C8BE1E82E81E00C
:1007C000F82E9BE3C92E91E0D92E28E2A22E21E03B
:1007D000B22E30E0832E30E0932E1A8219821C82D2
:1007E0001B821E821D8270E060E0CE0101960E9495
:1007F000040229813A8181117CC02115310519F04B
:10080000C9010E9499051A8219821E821D821C82CA
:100810001B827F926F92FF92EF920E9465078985FB
:100820000F900F900F900F908823E1F08D30D1F052
:100830008F8318860D811E810F5F1F4FB801CE0177
:1008400001960E940402882369F029813A818D81F2
:100850009E81BE01695F7F4F820F931F0E944107F7
:100860001E830D8389858D30A1F64D815E814115F2
:10087000510569F169817A8181E591E00E948D00DD
:1008800042E050E06EE171E081E591E00E948D0070
:100890008D819E81892BD9F009811A8161E271E0F5
:1008A000C8010E943807892B61F50091EE01109173
:1008B000EF0161E0F80180810E949A0181E0F80176
:1008C0008283BF92AF920E9448070F900F90898158
:1008D0009A81009711F00E9499058114910409F4FE
:1008E0007CCF0E94F700882309F477CF0E94000094
:1008F00074CF1E821D8260E271E0C9010E9441072F
:1009000088CF63E371E0C8010E943807892BF9F6AC
:100910000091EE011091EF0160E0F80180810E94EA
:100920009A01F8011282DF92CF92CDCF0F931F93DD
:10093000CF93DF93009759F46115710541F4F0E00E
:10094000E0E0CF01DF91CF911F910F9108958B01CE
:10095000EC016EE070E081E090E00E94E104FC01B7
:10096000892B69F380E883830115110571F01387E2
:10097000028781E883838091F0019091F101892BB6
:1009800021F4F093F101E093F0012097D1F2D187A7
:10099000C0878381826083838091F2019091F3010B
:1009A000892B79F6F093F301E093F2018091F40141
:1009B0009091F501892B29F6F093F501E093F4016C
:1009C000C0CF0F931F93CF93DF93869F8001879FA4
:1009D000100D969F100D1124C8010E94FD04EC011A
:1009E000009729F0A80170E060E00E942B06CE017C
:1009F000DF91CF911F910F9108950F931F93CF9384
:100A0000DF938230910510F482E090E0E091F801EC
:100A1000F091F90130E020E0B0E0A0E0309799F4E7
:100A20002115310509F44AC0281B390B2430310542
:100A3000D8F58A819B816115710589F1FB0193834A
:100A40008283FE0111C040815181028113814817C8
:100A50005907E0F04817590799F4109761F012967A
:100A60000C93129713961C933296CF01DF91CF917E
:100A70001F910F9108950093F8011093F901F4CF9D
:100A80002115310551F04217530738F0A901DB0158
:100A90009A01BD01DF01F801C1CFEF01F9CF9093B9
:100AA000F9018093F801CDCFFE01E20FF31F81938E
:100AB00091932250310939832883D7CF2091F601B1
:100AC0003091F701232B41F4209102013091030171
:100AD0003093F7012093F60120910001309101013C
:100AE0002115310541F42DB73EB7409104015091D5
:100AF0000501241B350BE091F601F091F701E21797
:100B0000F307A0F42E1B3F0B2817390778F0AC0130
:100B10004E5F5F4F2417350748F04E0F5F1F50930D
:100B2000F7014093F601819391939FCFF0E0E0E0CD
:100B30009CCFCF93DF930097E9F0FC0132971382AB
:100B40001282A091F801B091F901ED0130E020E0AE
:100B50001097A1F420813181820F931F2091F6011B
:100B60003091F7012817390709F061C0F093F701B8
:100B7000E093F601DF91CF910895EA01CE17DF07E8
:100B8000E8F54A815B819E0141155105B1F7E90104
:100B9000FB83EA8349915991C40FD51FEC17FD07D8
:100BA00061F4808191810296840F951FE9019983F8
:100BB0008883828193819B838A83F0E0E0E01296B0
:100BC0008D919C9113970097B9F52D913C911197B8
:100BD000CD010296820F931F2091F6013091F7010B
:100BE0002817390739F6309751F51092F90110920C
:100BF000F801B093F701A093F601BCCFD383C28371
:100C000040815181840F951FC817D90761F44E5F49
:100C10005F4F88819981480F591F518340838A8192
:100C20009B81938382832115310509F0B0CFF09326
:100C3000F901E093F8019ECFFD01DC01C0CF1382E2
:100C40001282D7CF91110C943206803219F089505C
:100C50008550C8F70895DC0101C06D9341505040A4
:100C6000E0F708959927882708952F923F924F9291
:100C70005F926F927F928F929F92AF92BF92CF922C
:100C8000DF92EF92FF920F931F93CF93DF93CDB735
:100C9000DEB7CA1BDB0B0FB6F894DEBF0FBECDBFAD
:100CA00009942A88398848885F846E847D848C847E
:100CB0009B84AA84B984C884DF80EE80FD800C8187
:100CC0001B81AA81B981CE0FD11D0FB6F894DEBF6A
:100CD0000FBECDBFED010895EE0FFF1F0590F491FB
:100CE000E02D0994B0E0A0E0E8E7F6E00C943706C8
:100CF0008C01009751F4CB010E94FD048C01C801C6
:100D0000CDB7DEB7E0E10C945306FC01E60FF71F08
:100D10009C0122503109E217F30708F49DC0D90164
:100D2000CD91DC911197C617D70798F0C530D10542
:100D300030F3CE0104978617970708F3C61BD70B2D
:100D40002297C193D1936D937C93CF010E94990513
:100D5000D6CF5B01AC1ABD0A4C018C0E9D1EA09132
:100D6000F801B091F901512C412CF12CE12C109794
:100D700031F58091F6019091F7018815990509F0F8
:100D80005CC04616570608F058C08091000190914B
:100D90000101009741F48DB79EB740910401509135
:100DA0000501841B950BE817F90708F055C0F0936F
:100DB000F701E093F601F90171836083A0CF8D9173
:100DC0009C91119712966C90129713967C901397A2
:100DD000A815B90559F56C0142E0C40ED11CCA141E
:100DE000DB0420F1AC014A195B09DA011296159770
:100DF00080F06282738251834083D9016D937C932A
:100E0000E114F10471F0D7011396FC93EE9312975D
:100E100076CF22968C0F9D1FF90191838083F30179
:100E2000EFCFF093F901E093F80169CF4816590626
:100E300008F42C017D01D3019ACFCB010E94FD045F
:100E40007C01009749F0AE01B8010E942F07C8014C
:100E50000E949905870153CF10E000E050CFFB01BD
:100E6000DC0102C001900D9241505040D8F7089526
:100E7000FB01DC018D91019080190110D9F3990BD0
:100E80000895FB01DC0101900D920020E1F7089527
:100E9000B0E0A0E0EEE4F7E00C944506AE014B5F55
:100EA0005F4FFA0161917191AF018091F2019091D0
:100EB000F3010E947B07E2E00C9461066091F2016D
:100EC0007091F3010E94420C0895B0E0A0E0EBE6BF
:100ED000F7E00C944506AE014B5F5F4FFA0161915C
:100EE0007191AF018091F0019091F1010E94E00AAF
:100EF000E2E00C946106ABE0B0E0E1E8F7E00C94CE
:100F000035067C013B018A01FC0117821682838130
:100F100081FFC8C1CE0101965C01F7019381F30105
:100F200093FD859193FF81913F01882309F453C17B
:100F3000853239F493FD859193FF81913F0185328C
:100F400029F4B70190E00E94420CE7CF912C212CAC
:100F5000312CFFE1F31538F08B3211F190F480322F
:100F600009F1833229F137FC3CC020ED280F2A30EB
:100F700050F536FE20C08AE0989E200D1124922E56
:100F800006C08D3291F0803371F7689430F8F30128
:100F900093FD859193FF81913F018111DACF21C0AB
:100FA000689431F8689432F8F2CF689433F8EFCF50
:100FB000689434F8ECCFEAE02E9E200D1124222E06
:100FC000689435F8E4CF8E3229F436FC04C1689475
:100FD00036F8DDCF8C3619F4689437F8D8CF8836D8
:100FE000B1F2982F9F7D95549330E0F08336A1F1B4
:100FF0008337C1F1833509F063C02801F2E04F0E59
:10100000511CF801C080D180692D70E036FC02C00F
:101010006FEF7FEFC6010E94F00B4C01689437F828
:1010200082010AC00C5F1F4FFFE3F9838824839479
:10103000912C6501E89437F833FE2DC0522C8114B1
:10104000910471F5552009F468CFB70180E290E072
:101050000E94420C5A94F6CFF801808189830E5F7A
:101060001F4FE4CF2801F2E04F0E511CF801C08061
:10107000D180692D70E036FC02C06FEF7FEFC601B2
:101080000E94FB0B4C018201D5CFB70180E290E0BA
:101090000E94420C2A942814190409F0B0F7CECF0C
:1010A000F60137FC859137FE81916F01B70190E021
:1010B0000E94420C51105A94F1E08F1A9108BFCF50
:1010C000843619F0893609F077C0F80137FE6BC015
:1010D00060817181828193810C5F1F4FF32DFF76B8
:1010E0003F2E97FF09C090958095709561957F4F31
:1010F0008F4F9F4F689437F82AE030E0A5010E9497
:101100008A0CC82ECA188C2C432C36FE0CC0E894CE
:1011100040F8C91440F434FE05C032FC03C0F32D7E
:10112000FE7E4F2E892C44FE95C0FE01EC0DF11D74
:101130008081803309F087C0242D297E422E842DA2
:101140008870582E43FC95C040FE8FC09C2C8214A2
:1011500018F42C0C922C981844FE91C0B70180E32F
:1011600090E00E94420C42FE09C088E790E041FEF8
:1011700002C088E590E0B7010E94420CC91408F44F
:101180008AC0CA94D12C9FEFC91AD90ACA0CDB1C99
:10119000F60182916F01B70190E00E94420CAC14FD
:1011A000BD04B1F74FCF60817181072E000C880B11
:1011B000990B0E5F1F4F92CFD32CE894D4F82AE0FE
:1011C00030E0853739F1232D297FD22E8F3601F17A
:1011D00048F48835A9F0F701868197812B96E2E1E2
:1011E0000C945106803749F08837A9F7D4FE02C025
:1011F0006894D2F820E130E00DC06894D4F8F6CFBE
:1012000034FE03C0822F8660D82E20E132E002C077
:1012100028E030E0F801D7FE0FC060817181828143
:1012200093810C5F1F4FA5010E948A0CC82ECA181B
:101230003D2CE89437F867CF6081718190E080E0C1
:101240000E5F1F4FF0CF42FC02C0839478CF83948F
:10125000839475CF842D867809F471CFF6CFB701CA
:1012600080E290E00E94420C83948214C0F3512CDF
:1012700073CF522C5818821408F46ECFF8CF842DF7
:10128000867809F47BCF8BE241FE80E247FC8DE259
:10129000B70190E071CFB70180E390E00E94420C6B
:1012A0009A946CCF8FEF9FEF99CF20FD09C0FC017E
:1012B00023FD05C022FF02C07383628351834083F4
:1012C000089544FD17C046FD1DC0DB01FC01AA0FB7
:1012D000BB1FEE1FFF1F1094D1F76A0F7B1F8E1FDD
:1012E0009F1F660F771F881F991F620F711D811D39
:1012F000911D089533E0660F771F881F991F3150A5
:10130000D1F7F3CF34E0F7CF0F931F93CF93DF9351
:101310008C01C8010E94060CEC0197FD08C00E94D8
:101320002206892BB1F7B801CE010E94720CCE01C2
:10133000DF91CF911F910F9108958F929F92AF925D
:10134000BF92EF92FF920F931F93CF93DF938C0185
:10135000D62F7A01B22E0E94060C9C0133272B3225
:10136000310529F02D323105A9F46894B7F8D15030
:1013700061F480E0DF91CF911F910F91FF90EF908A
:10138000BF90AF909F908F900895C8010E94060C67
:1013900097FDEFCFCB2DCD7F2B2D2073F9F480332C
:1013A000E9F4AA24AA94AD0E89F0C8010E94060CA3
:1013B00097FD0CC0282F2F7D283561F4C264D250D0
:1013C00029F0C8010E94060C97FF08C0812C912CBF
:1013D00054011BC0B6FE2BC0C260DA2D812C912CAB
:1013E000540120ED280F283028F1C4FD09C02A300F
:1013F00008F1C6FF05C02F7D3FEE320F3630C8F032
:10140000B8010E94720CC1FFB4CFC7FF08C0B094EE
:10141000A09490948094811C911CA11CB11C2C2F31
:10142000B501A401C7010E94550981E0A3CFC261A3
:10143000D4CF27504C2FC501B4010E9461094B0144
:101440005C01C260D15009F3C8010E94060C97FFED
:10145000C8CFD9CFA0E2B0E0E0E3FAE00C943A06BE
:101460005C01962E7A01CE0101966C0180E2F601B4
:1014700011928A95E9F7F501B381890130E020E006
:10148000712C812CA0E041E050E0F801B3FD859182
:10149000B3FF8191982F8F01811107C010E000E008
:1014A000C801A096EDE00C9456068E3519F421156E
:1014B000310541F1A21713064CF48D3549F18D32F7
:1014C00029F4811006C0882483941DC0882009F463
:1014D00064C0E92FE695E695E695EC0DFD2DF11D2E
:1014E000892F8770BA0101C0660F8A95EAF780815B
:1014F000682B6083791651F0971510F49F5FE9CF40
:101500009150E7CFA1E02F5F3F4FBFCF812CFBCFA2
:10151000882019F08E8180628E83AA2359F0F6010B
:101520009E012F5D3F4F8081809580833196E21729
:10153000F307C9F788248394C5010E94060C97FD20
:1015400016C0E82FE695E695E695EC0DFD2DF11D0C
:10155000208130E0AC014770552702C035952795B2
:101560004A95E2F720FD06C0B5010E94720C882062
:1015700069F094CFE114F10429F0F7018083C701E9
:1015800001967C019A94812C9110D6CFE114F1043C
:1015900009F486CFF701108283CFE82FE695E69510
:1015A000E695EC0DFD2DF11D982F9770BA0101C045
:1015B000660F9A95EAF79081692B6083782EA3CF06
:1015C000B0E0A0E0E6EEFAE00C9438066C01EB0126
:1015D0005A01FC0117821682512CF601E380FE01AC
:1015E000E3FC8591E3FE8191182FEF018823E9F058
:1015F00090E00E942206892B21F0C6010E948409F6
:10160000ECCF153241F4FE01E3FC1591E3FE11919C
:10161000EF01153269F4C6010E94060C97FD8EC0D9
:101620001817D9F2B6010E94720C852D90E08AC07D
:1016300000E01A3231F4E3FC1591E3FE1191EF0161
:1016400001E0F12C20ED210F2A3048F101FF37C0D5
:10165000FF2059F31836B1F11C3609F43DC01123AF
:1016600021F3612F70E088E690E00E94E50B892B62
:10167000E1F2912C812C00FD06C0F5018080918063
:10168000C50102965C011E3679F5F6014681578147
:1016900070E060E0202FC4010E9455099ECF0260D7
:1016A0006F2D70E090E080E040E20E946109F62E2C
:1016B000FE01E3FC1591E3FE1191EF01C3CFFF247E
:1016C000FA94C8CFFE01E3FC1591E3FE1191EF01FE
:1016D000183609F0C4CF08600460FE01E3FC1591E0
:1016E000E3FE1191EF01BBCF1336C1F401FD02C03F
:1016F000FF24F394C6010E94060C97FD1FC08114BD
:10170000910429F0F4018083C40101964C01FA94FC
:10171000F110F0CF00FD61CF53945FCF1B35B9F4CA
:101720009E01A4016F2DC6010E942A0AEC01892B9B
:1017300089F7F6018381807309F477CF8FEF9FEFEC
:10174000511073CFCDB7DEB7EFE00C945406C6014D
:101750000E94840997FDF2CF1F36A9F130F41436A8
:1017600041F0193639F0006405C01337B9F0153768
:10177000D1F70062202FA4016F2DC6010E949D09A0
:101780008111C8CFD6CF8114910429F0F401608271
:10179000C40101964C01FA94FF2071F0C6010E9429
:1017A000060C3C0197FD08C00E942206892B59F3C4
:1017B000B601C3010E94720C8114910409F4AACFEE
:1017C000F4011082A7CF0061D5CFFC010590061669
:1017D00021F00020D9F7C00108953197CF01089575
:1017E000FC010590615070400110D8F780959095EC
:1017F0008E0F9F1F0895FC016150704001900110F1
:10180000D8F7809590958E0F9F1F0895CF93DF9303
:10181000EC012B8120FF1AC026FF0CC02F7B2B83ED
:101820008E819F8101969F838E838A8190E0DF91D4
:10183000CF91089522FF18C0E881F9818081082E98
:10184000000C990B009729F420622B838FEF9FEFF8
:10185000EECF3196F983E8832E813F812F5F3F4F92
:101860003F832E839927E3CFEA85FB85099597FF70
:10187000F3CF2B81019621F080E2822B8B83E6CF80
:1018800080E1FBCF0F931F93CF93DF93182F092F86
:10189000EB018B8181FD09C01FEF0FEF812F902F8E
:1018A000DF91CF911F910F91089582FF14C02E8177
:1018B0003F818C819D81281739073CF4E881F981AB
:1018C000CF0101969983888310838E819F81019631
:1018D0009F838E83E3CFE885F985812F0995892B36
:1018E000A1F3DACFFB01238120FF11C026FD0FC039
:1018F0008F3F980771F082832F7D20642383268198
:1019000037812150310937832683992708958FEF36
:101910009FEF0895FA01AA27283051F1203181F173
:10192000E8946F936E7F6E5F7F4F8F4F9F4FAF4FE7
:10193000B1E03ED0B4E03CD0670F781F891F9A1FFA
:10194000A11D680F791F8A1F911DA11D6A0F711DAE
:10195000811D911DA11D20D009F468943F912AE0BA
:10196000269F11243019305D3193DEF6CF010895A2
:10197000462F4770405D4193B3E00FD0C9F7F6CFD3
:10198000462F4F70405D4A3318F0495D31FD40529B
:10199000419302D0A9F7EACFB4E0A6959795879531
:1019A00077956795BA95C9F7009761057105089510
:1019B0009B01AC010A2E06945795479537952795BC
:1019C000BA95C9F7620F731F841F951FA01D089554
:0419D000F894FFCFB9
:1019D4000000FA018000000000002D018D00BA0013
:1019E4007A01EB00C900DD00320D002563000D0A09
:1019F400006C6564206F6E004C4544206973206F51
:101A04006E0D006C6564206F6666004C4544206969
:081A140073206F66660D0000EF
:107E0000112484B714BE81FFF0D085E080938100F7
:107E100082E08093C00088E18093C10086E0809377
:107E2000C20080E18093C4008EE0C9D0259A86E02C
:107E300020E33CEF91E0309385002093840096BBD3
:107E4000B09BFECF1D9AA8958150A9F7CC24DD24C4
:107E500088248394B5E0AB2EA1E19A2EF3E0BF2EE7
:107E6000A2D0813461F49FD0082FAFD0023811F036
:107E7000013811F484E001C083E08DD089C08234E0
:107E800011F484E103C0853419F485E0A6D080C0E4
:107E9000853579F488D0E82EFF2485D0082F10E0AE
:107EA000102F00270E291F29000F111F8ED06801E7
:107EB0006FC0863521F484E090D080E0DECF843638
:107EC00009F040C070D06FD0082F6DD080E0C81688
:107ED00080E7D80618F4F601B7BEE895C0E0D1E017
:107EE00062D089930C17E1F7F0E0CF16F0E7DF06D8
:107EF00018F0F601B7BEE89568D007B600FCFDCFD4
:107F0000A601A0E0B1E02C9130E011968C91119780
:107F100090E0982F8827822B932B1296FA010C0160
:107F200087BEE89511244E5F5F4FF1E0A038BF0790
:107F300051F7F601A7BEE89507B600FCFDCF97BE46
:107F4000E89526C08437B1F42ED02DD0F82E2BD052
:107F50003CD0F601EF2C8F010F5F1F4F84911BD097
:107F6000EA94F801C1F70894C11CD11CFA94CF0C13
:107F7000D11C0EC0853739F428D08EE10CD085E9AC
:107F80000AD08FE07ACF813511F488E018D01DD067
:107F900080E101D065CF982F8091C00085FFFCCF94
:107FA0009093C60008958091C00087FFFCCF809118
:107FB000C00084FD01C0A8958091C6000895E0E648
:107FC000F0E098E1908380830895EDDF803219F02E
:107FD00088E0F5DFFFCF84E1DECF1F93182FE3DFCA
:107FE0001150E9F7F2DF1F91089580E0E8DFEE27F6
:047FF000FF270994CA
:027FFE00040479
:0400000300007E007B
:00000001FF
